:020000040800F2
:100000000050002061210008D1170008D717000810
:10001000DD170008E3170008E917000800000000DA
:10002000000000000000000000000000EF170008C2
:10003000FB1700080000000007180008131800084C
:10004000A9210008A9210008A9210008A921000868
:10005000A9210008A9210008A9210008A921000858
:10006000A9210008A9210008A9210008A921000848
:10007000A9210008A9210008A9210008A921000838
:10008000A9210008A9210008A9210008A921000828
:10009000A9210008A9210008A9210008A921000818
:1000A000A9210008A9210008A9210008A921000808
:1000B000A9210008A9210008A9210008A9210008F8
:1000C000A9210008A9210008A92100082118000879
:1000D000A9210008A9210008A9210008A9210008D8
:1000E000A9210008A9210008A9210008000000009A
:1000F0000000000000000000000000000000000000
:0C01000000000000000000005FF808F1A3
:1001100010B5054C237833B9044B13B10448AFF341
:1001200000800123237010BDA0000020000000000B
:10013000E45C000808B5034B1BB103490348AFF367
:10014000008008BD00000000A4000020E45C00085E
:10015000034613F8012B002AFBD1181A0138704707
:1001600081F0004102E000BF83F0004330B54FEA68
:1001700041044FEA430594EA050F08BF90EA020FD5
:100180001FBF54EA000C55EA020C7FEA645C7FEA68
:10019000655C00F0E2804FEA5454D4EB5555B8BF8B
:1001A0006D420CDD2C4480EA020281EA030382EAFC
:1001B000000083EA010180EA020281EA0303362D8E
:1001C00088BF30BD11F0004F4FEA01314FF4801C61
:1001D0004CEA113102D0404261EB410113F0004F73
:1001E0004FEA03334CEA133302D0524263EB43032A
:1001F00094EA050F00F0A780A4F10104D5F1200EC8
:100200000DDB02FA0EFC22FA05F2801841F1000122
:1002100003FA0EF2801843FA05F359410EE0A5F1F6
:1002200020050EF1200E012A03FA0EFC28BF4CF027
:10023000020C43FA05F3C01851EBE37101F00045DD
:1002400007D54FF0000EDCF1000C7EEB00006EEBEA
:100250000101B1F5801F1BD3B1F5001F0CD3490874
:100260005FEA30004FEA3C0C04F101044FEA4452CB
:1002700012F5800F80F09A80BCF1004F08BF5FEA52
:10028000500C50F1000041EB045141EA050130BD32
:100290005FEA4C0C404141EB0101013C28BFB1F544
:1002A000801FE9D291F0000F04BF01460020B1FA8F
:1002B00081F308BF2033A3F10B03B3F120020CDA62
:1002C0000C3208DD02F1140CC2F10C0201FA0CF040
:1002D00021FA02F10CE002F11402D8BFC2F1200CA5
:1002E00001FA02F120FA0CFCDCBF41EA0C0190405B
:1002F000E41AA2BF01EB0451294330BD6FEA0404A4
:100300001F3C1CDA0C340EDC04F11404C4F120028E
:1003100020FA04F001FA02F340EA030021FA04F3A0
:1003200045EA030130BDC4F10C04C4F1200220FAF7
:1003300002F001FA04F340EA0300294630BD21FA35
:1003400004F0294630BD94F0000F83F4801306BFFB
:1003500081F480110134013D4EE77FEA645C18BFEF
:100360007FEA655C29D094EA050F08BF90EA020F86
:1003700005D054EA000C04BF1946104630BD91EA7E
:10038000030F1EBF0021002030BD5FEA545C05D181
:100390004000494128BF41F0004130BD14F58004C0
:1003A0003CBF01F5801130BD01F0004545F0FE4134
:1003B00041F470014FF0000030BD7FEA645C1ABF69
:1003C000194610467FEA655C1CBF0B46024650EAA0
:1003D000013406BF52EA033591EA030F41F40021CC
:1003E00030BD00BF90F0000F04BF0021704730B552
:1003F0004FF4806404F132044FF000054FF0000127
:1004000050E700BF90F0000F04BF0021704730B5E7
:100410004FF4806404F1320410F0004548BF4042BC
:100420004FF000013EE700BF42004FEAE2014FEA11
:1004300031014FEA02701FBF12F07F4393F07F4FEC
:1004400081F06051704732F07F4208BF704793F0EF
:100450007F4F04BF41F40021704730B54FF4607402
:1004600001F0004521F000411CE700BF50EA010205
:1004700008BF704730B54FF000050AE050EA0102AE
:1004800008BF704730B511F0004502D5404261EB1E
:1004900041014FF4806404F132045FEA915C3FF45F
:1004A000D8AE4FF003025FEADC0C18BF03325FEAFC
:1004B000DC0C18BF033202EBDC02C2F1200300FAAD
:1004C00003FC20FA02F001FA03FE40EA0E0021FAD2
:1004D00002F11444BDE600BF70B54FF0FF0C4CF4C0
:1004E000E06C1CEA11541DBF1CEA135594EA0C0F72
:1004F00095EA0C0F00F0DEF82C4481EA030621EAAD
:100500004C5123EA4C5350EA013518BF52EA0335E7
:1005100041F4801143F4801338D0A0FB02CE4FF099
:100520000005E1FB02E506F00042E0FB03E54FF0C9
:100530000006E1FB03569CF0000F18BF4EF0010EC1
:10054000A4F1FF04B6F5007F64F5407404D25FEABD
:100550004E0E6D4146EB060642EAC62141EA555170
:100560004FEAC52040EA5E504FEACE2EB4F1FD0CB2
:1005700088BFBCF5E06F1ED8BEF1004F08BF5FEA30
:10058000500E50F1000041EB045170BD06F00046E2
:1005900046EA010140EA020081EA0301B4EB5C048F
:1005A000C2BFD4EB0C0541EA045170BD41F4801187
:1005B0004FF0000E013C00F3AB8014F1360FDEBFAC
:1005C000002001F0004170BDC4F10004203C35DA88
:1005D0000C341BDC04F11404C4F1200500FA05F30B
:1005E00020FA04F001FA05F240EA020001F00042AC
:1005F00021F0004110EBD37021FA04F642EB060122
:100600005EEA430E08BF20EAD37070BDC4F10C044B
:10061000C4F1200500FA04F320FA05F001FA04F20F
:1006200040EA020001F0004110EBD37041F10001FB
:100630005EEA430E08BF20EAD37070BDC4F1200506
:1006400000FA05F24EEA020E20FA04F301FA05F26E
:1006500043EA020321FA04F001F0004121FA04F216
:1006600020EA020000EBD3705EEA430E08BF20EAE6
:10067000D37070BD94F0000F0FD101F00046400020
:1006800041EB010111F4801F08BF013CF7D041EAA2
:10069000060195F0000F18BF704703F000465200A6
:1006A00043EB030313F4801F08BF013DF7D043EA77
:1006B0000603704794EA0C0F0CEA135518BF95EA2D
:1006C0000C0F0CD050EA410618BF52EA4306D1D1B4
:1006D00081EA030101F000414FF0000070BD50EAD3
:1006E000410606BF1046194652EA430619D094EA5D
:1006F0000C0F02D150EA013613D195EA0C0F05D147
:1007000052EA03361CBF104619460AD181EA03019A
:1007100001F0004141F0FE4141F470014FF0000052
:1007200070BD41F0FE4141F4780170BD70B54FF0ED
:10073000FF0C4CF4E06C1CEA11541DBF1CEA13556D
:1007400094EA0C0F95EA0C0F00F0A7F8A4EB05044F
:1007500081EA030E52EA03354FEA013100F0888046
:100760004FEA03334FF0805545EA131343EA12630F
:100770004FEA022245EA111545EA10654FEA0026C4
:100780000EF000419D4208BF964244F1FD0404F57D
:10079000407402D25B084FEA3202B61A65EB0305D9
:1007A0005B084FEA32024FF480104FF4002CB6EB96
:1007B000020E75EB030E22BFB61A754640EA0C0016
:1007C0005B084FEA3202B6EB020E75EB030E22BF56
:1007D000B61A754640EA5C005B084FEA3202B6EB97
:1007E000020E75EB030E22BFB61A754640EA9C0056
:1007F0005B084FEA3202B6EB020E75EB030E22BF26
:10080000B61A754640EADC0055EA060E18D04FEAE3
:10081000051545EA16754FEA06164FEAC30343EA83
:1008200052734FEAC2025FEA1C1CC0D111F4801F50
:100830000BD141EA00014FF000004FF0004CB6E749
:1008400011F4801F04BF01430020B4F1FD0C88BFE8
:10085000BCF5E06F3FF6AFAEB5EB030C04BFB6EBF3
:10086000020C5FEA500C50F1000041EB045170BDE6
:100870000EF0004E4EEA113114EB5C04C2BFD4EB13
:100880000C0541EA045170BD41F480114FF0000E97
:10089000013C90E645EA060E8DE60CEA135594EA13
:1008A0000C0F08BF95EA0C0F3FF43BAF94EA0C0F16
:1008B0000AD150EA01347FF434AF95EA0C0F7FF48B
:1008C00025AF104619462CE795EA0C0F06D152EADF
:1008D00003353FF4FDAE1046194622E750EA4106C3
:1008E00018BF52EA43067FF4C5AE50EA41047FF4D4
:1008F0000DAF52EA43057FF4EBAE12E74FF0FF3C39
:1009000006E000BF4FF0010C02E000BF4FF0010C09
:100910004DF804CD4FEA410C7FEA6C5C4FEA430C82
:1009200018BF7FEA6C5C1BD001B050EA410C0CBFD1
:1009300052EA430C91EA030F02BF90EA020F002033
:10094000704710F1000F91EA030F58BF994208BF9A
:1009500090422CBFD8176FEAE37040F00100704757
:100960004FEA410C7FEA6C5C02D150EA013C07D1AE
:100970004FEA430C7FEA6C5CD6D152EA033CD3D0F9
:100980005DF8040B704700BF8446104662468C46F3
:100990001946634600E000BF01B5FFF7B7FF002826
:1009A00048BF10F1000F01BD4DF808EDFFF7F4FF4F
:1009B0000CBF012000205DF808FB00BF4DF808EDDA
:1009C000FFF7EAFF34BF012000205DF808FB00BFFD
:1009D0004DF808EDFFF7E0FF94BF012000205DF81F
:1009E00008FB00BF4DF808EDFFF7CEFF94BF0120D4
:1009F00000205DF808FB00BF4DF808EDFFF7C4FFCD
:100A000034BF012000205DF808FB00BF4A0011D26E
:100A100012F5001211D20DD56FF47873B3EB625258
:100A20000ED44FEAC12343F0004343EA505323FA64
:100A300002F070474FF00000704750EA013002D1D9
:100A40004FF0FF3070474FF00000704780B586B020
:100A500004AF78606423029301230193134B009346
:100A600001237522D021786802F086F9104B00220C
:100A70001A700E4B1B78682B13D10D4B00221A7085
:100A80006423029301230193094B009301236B22FA
:100A9000D021786802F076F80A2001F0E9FB002303
:100AA00000E0012318460837BD4680BDBC00002089
:100AB000C600002080B586B004AF7860134B0022DA
:100AC0001A706423029301230193104B00930123B6
:100AD0006A22D021786802F055F80A2001F0C8FB9C
:100AE0000A4B02221A706423029301230193074BDD
:100AF000009301233722D021786802F043F80A20BE
:100B000001F0B6FB00BF0837BD4680BDC60000201F
:100B100080B586B004AF7860254B00221A7064233C
:100B2000029301230193224B009301233722D0210A
:100B3000786802F027F80A2001F09AFB1C4B222269
:100B40001A706423029301230193194B009301232C
:100B50006A22D021786802F015F80A2001F088FB9B
:100B6000134B0D221A706423029301230193104B3F
:100B7000009301232422D021786802F003F80A2090
:100B800001F076FB0A4B00221A70642302930123C2
:100B90000193074B009301236B22D021786801F069
:100BA000F1FF0A2001F064FB00BF0837BD4680BD9D
:100BB000C600002080B586B004AF78601C4B1822B8
:100BC0001A706423029301230193194B00930123AC
:100BD00000223C21786801F0D5FF0A2001F048FB93
:100BE000134B20221A706423029301230193104BAC
:100BF0000093012301223C21786801F0C3FF0A2001
:100C000001F036FB0A4B00221A7064230293012381
:100C10000193074B0093012302223C21786801F0E5
:100C2000B1FF0A2001F024FB00BF0837BD4680BD9C
:100C3000C600002080B586B004AF78601C4B9E22B1
:100C40001A706423029301230193194B009301232B
:100C50002522D021786801F095FF0A2001F008FBD9
:100C6000134B03221A706423029301230193104B48
:100C7000009301232622D021786801F083FF0A2007
:100C800001F0F6FA0A4B86221A70642302930123BC
:100C90000193074B009301232722D021786801F0AC
:100CA00071FF0A2001F0E4FA00BF0837BD4680BD9D
:100CB000C600002080B586B004AF7860642302933C
:100CC00006230193054B009301234922D021786824
:100CD00002F052F800BF0837BD4680BDC0000020BA
:100CE000B0B584B000AF7860474B1B781B021AB2D6
:100CF000454B5B781BB213431AB27B681A80424B98
:100D00009B781B021AB2404BDB781BB213431BB219
:100D10009BB25B429BB21AB27B689A803A4B1B79BA
:100D20001B021AB2384B5B791BB213431BB29BB246
:100D30005B429BB21AB27B685A807B68B3F902307F
:100D40001846FFF75FFB04460D467B68B3F9003099
:100D50001846FFF757FB02460B462046294604F08B
:100D60005BFDC7E9020124A3D3E90023D7E902010F
:100D7000FFF742FE0346002B0AD01FA3D3E900234E
:100D8000D7E90201FFF7F0F902460B46C7E9022353
:100D90004FF000024FF00003D7E90201FFF70EFE0B
:100DA0000346002B0AD014A3D3E90023D7E902019C
:100DB000FFF7DCF902460B46C7E902234FF00002B9
:100DC000124BD7E90201FFF787FB02460B4610469C
:100DD00019460BA3D3E90023FFF7A8FC02460B46F4
:100DE00010461946FFF712FE03469BB2184610370D
:100DF000BD46B0BDAFF30080EA2E4454FB2119403C
:100E0000EA2E4454FB210940C000002000806640C7
:100E100080B588B000AF01F0C9F900F071F800F0BA
:100E200019F900F0E1F800F0B1F82D48FFF70EFED7
:100E30002B48FFF73FFE2A48FFF7BCFE2848FFF784
:100E400067FE2748FFF7F6FE0023FB77254A07F1E8
:100E5000100392E80300186004331980224BFB60F2
:100E60006FF07F43BB60214B7B603B1D07F10802A5
:100E700007F10C0107F1100000F056FF1C4B3B601E
:100E800000BFF87F002341F27172022100F032F9B5
:100E900003461A46FB7F9A42F3D11148FFF70AFF37
:100EA000142001F0E5F907F118031846FFF718FFC1
:100EB00003461A460F4B1A800E4B1B881A460E49E2
:100EC0000E4804F02FF83A46F87F41F289330B4977
:100ED00000F078FF4FF4AF7001F0CAF9DDE700BF12
:100EE000C8000020045D0008C0A8010FC0A80101CF
:100EF000C0A8010474010020005D000878010020F2
:100F000080B590B000AF07F11803282200211846E1
:100F100004F000F83B1D00221A605A609A60DA6003
:100F20001A610123BB614FF48033FB6100233B62F4
:100F30000123BB6202237B634FF48033BB634FF416
:100F4000E013FB6307F11803184602F031FD034676
:100F5000002B01D000F0C8F80F237B600223BB6098
:100F60000023FB604FF480633B6100237B613B1DEA
:100F70000221184602F09EFF0346002B01D000F02C
:100F8000B3F800BF4037BD4680BD000080B500AF5C
:100F9000124B134A1A60114B124A5A600F4B00222F
:100FA0009A600E4B0022DA600C4B4FF480421A61BB
:100FB0000A4B00225A61094B00229A61074B00221A
:100FC000DA61064B00221A62044801F097FC0346DE
:100FD000002B01D000F088F800BF80BDC8000020C1
:100FE00000580040801A060080B500AF174B184A21
:100FF0001A60164B4FF482725A60144B00229A60AA
:10100000124B0022DA60114B00221A610F4B0022B2
:101010005A610E4B4FF400729A610C4B1022DA6148
:101020000A4B00221A62094B00225A62074B002227
:101030009A62064B0A22DA62044803F0B5F80346C6
:10104000002B01D000F050F800BF80BD1C01002033
:101050000030014080B588B000AF07F110030022D6
:101060001A605A609A60DA601D4B9B691C4A43F013
:10107000200393611A4B9B6903F02003FB60FB681C
:10108000174B9B69164A43F004039361144B9B6909
:1010900003F00403BB60BB68114B9B69104A43F02B
:1010A000080393610E4B9B6903F008037B607B6828
:1010B000002210210B4801F009FC10233B610123A1
:1010C0007B610123BB610223FB6107F11003194619
:1010D000044801F077FA00BF2037BD4680BD00BF4D
:1010E000001002400008014080B400AF72B600BF9B
:1010F000FEE7000090B585B000AF044608461146F3
:101100001A462346FB710346BB710B46BB80134650
:10111000FB70FB79082B02D94FF0FF33F2E0BB796B
:10112000012B05D0002B11DD023B022B0ED811E064
:1011300007F10C03042219464FF4706000F050FCD4
:10114000FB68002B05D16FF00203DBE06FF00403B6
:10115000D8E000BFFB7803F00403002B02D06FF04F
:101160000503CFE0FB78002B25D0BB79012B02D003
:10117000022B08D024E0FB7803F02103002B1CD1C4
:101180006FF00503BEE0FB7803F02003002B06D0D0
:1011900097F90330002B02DB6FF00503B2E0FB7818
:1011A00003F01003002B0AD097F90330002B06DB65
:1011B0006FF00503A6E000BF02E000BF00E000BF43
:1011C000FB79184600F0ACF8FB799B000133DB009B
:1011D000184697F9033023F00F035AB297F90630F7
:1011E00013435BB2DBB2194600F0ACFBBB88002BAB
:1011F00010D1464B1B885A1C91B2444A1180BB80C7
:10120000424B1B884FF6F072934203D13F4B4FF491
:1012100040421A80FB799B000133DB0003F58063B9
:101220001A46BB881B0A9BB2DBB21946104600F077
:1012300089FBFB799B000133DB0003F5A0631A46B1
:10124000BB88DBB21946104600F07CFBFB799B00A3
:101250000133DB0003F580730121184600F072FBB7
:1012600000BFFB799B000133DB0003F58073184658
:1012700000F01CFB0346002BF3D1FB79012202FA9C
:1012800003F31BB2DB431AB2214B1B881BB2134082
:101290001BB29AB21E4B1A80FB7803F00102FB7955
:1012A00002FA03F31AB21A4B1B881BB213431BB288
:1012B0009AB2174B1A80FB79012202FA03F31BB290
:1012C000DB431AB2134B1B881BB213401BB29AB2FA
:1012D000104B1A80FB79104A002122F81310FB7979
:1012E0000E4A0021D15400BFFB799B000133DB0083
:1012F00003F54073184600F0D9FA0346002BF3D0EB
:1013000097F9073018461437BD4690BD00000020FD
:1013100096010020980100209C010020AC010020D3
:1013200080B582B000AF0346FB71FB79082B02D970
:101330004FF0FF3355E0FB799B000133DB0003F5F1
:1013400080731021184600F0FDFA00BFFB799B0066
:101350000133DB0003F58073184600F0A7FA03465B
:10136000002BF3D1FB799B000133DB0003F5007305
:101370001F21184600F0E6FAFB79012202FA03F376
:101380001BB2DB431AB2194B1B881BB213401BB2B2
:101390009AB2164B1A80FB79012202FA03F31BB2B0
:1013A000DB431AB2124B1B881BB213401BB29AB21A
:1013B0000F4B1A80FB790F4A002122F81310FB799A
:1013C0000D4A0021D15400BFFB799B000133DB00A3
:1013D00003F54073184600F069FA0346002BF3D179
:1013E000012318460837BD4680BD00BF9601002086
:1013F000980100209C010020AC01002080B586B03F
:1014000000AFB9607B600346FB731346BB810023CA
:10141000FB750023BB82FB7B082B02D94FF0FF3307
:101420001BE1FB7B9B000133DB00184600F03EFA1A
:10143000034603F00F03023B022B02D96FF00403B3
:101440000BE100BFBB89002B02D16FF00D0304E15B
:101450007B681B783B613B691B027A68013212781A
:1014600013443B613B691B027A68023212781344D1
:101470003B613B691B027A680332127813443B617B
:101480003B69002B0ED1FB7B9B000133DB00184630
:1014900000F00CFA034603F00403042B02D06FF0B3
:1014A0000B03DAE03B8C002B0ED1FB7B9B0001335E
:1014B000DB00184600F0FAF9034603F00403042B9E
:1014C00002D06FF00A03C8E0FB7B9B000133DB0016
:1014D00003F54073184600F0E9F90346FB75FB7D00
:1014E000422B08D0FB7D222B05D0FB7D322B02D076
:1014F0006FF00603B1E0FB7B9B000133DB0003F5DB
:10150000406304227968184600F0CAFAFB7B9B000E
:101510000133DB0003F580531A463B8C1B0A9BB258
:10152000DBB21946104600F00DFAFB7B9B0001333D
:10153000DB0003F588531A463B8CDBB21946104694
:1015400000F000FAFB7B9B000133DB0003F5F8534E
:10155000184600F0ABF903469BB29B02BB82BA89E6
:10156000BB8A9A4201D9BB8ABB81FB7B184600F03B
:10157000F7FA0346BB82FB7B9B000133DB0003F5DC
:101580004073184600F092F90346002B02D16FF029
:10159000030362E0334B1B881A46FB7B42FA03F3DA
:1015A00003F00103002B05D0BA89BB8A9A4201D906
:1015B000002352E0BA89BB8A9A4200D9D5E700BF1E
:1015C000BA89FB7BB968184600F015FBFB7B9B00D2
:1015D0000133DB0003F580732021184600F0B2F9D7
:1015E00000BFFB7B9B000133DB0003F580731846D3
:1015F00000F05CF90346002BF3D1FB7B9B00013329
:10160000DB0003F50073184600F050F9034603F0C1
:101610001F03FB75FB7D03F01003002B0CD0FB7B3D
:101620009B000133DB0003F500731021184600F026
:1016300089F900BFBB8910E0FB7D03F00803002B94
:10164000DBD0FB7B9B000133DB0003F5007308213B
:10165000184600F077F96FF00C0318461837BD46AE
:1016600080BD00BF9601002080B483B000AF0E4B58
:101670009B690D4A43F0010393610B4B9B6903F097
:1016800001037B607B68084BDB69074A43F08053AA
:10169000D361054BDB6903F080533B603B6800BFBF
:1016A0000C37BD4680BC70470010024080B588B042
:1016B00000AF786007F1100300221A605A609A6048
:1016C000DA607B681B68164A934224D1154B9B69EC
:1016D000144A43F008039361124B9B6903F008031B
:1016E000FB60FB684FF440633B6112237B61032383
:1016F000FB6107F1100319460B4800F063FF094B2B
:10170000DB69084A43F48003D361064BDB6903F4C9
:101710008003BB60BB6800BF2037BD4680BD00BFF3
:101720000058004000100240000C014080B588B015
:1017300000AF786007F1100300221A605A609A60C7
:10174000DA607B681B681F4A934237D11E4B9B6946
:101750001D4A43F4805393611B4B9B6903F48053F0
:10176000FB60FB68184B9B69174A43F004039361C5
:10177000154B9B6903F00403BB60BB68A0233B616E
:1017800002237B610323FB6107F1100319460F4815
:1017900000F018FF40233B6100237B610023BB6105
:1017A00007F110031946094800F00CFF0022002140
:1017B000232000F058FE232000F071FE00BF2037E8
:1017C000BD4680BD003001400010024000080140CD
:1017D00080B400AFFEE780B400AFFEE780B400AF96
:1017E000FEE780B400AFFEE780B400AFFEE780B450
:1017F00000AF00BFBD4680BC704780B400AF00BFE3
:10180000BD4680BC704780B400AF00BFBD4680BC01
:10181000704780B500AF00F00FFD00BF80BD000035
:1018200080B500AF024803F04FF900BF80BD00BF94
:101830001C01002080B586B000AF7860144A154BBB
:10184000D31A7B617B693B61134B1B68002B02D170
:10185000114B124A1A60104B1A687B6813443A699C
:101860009A4207D203F02CFB03460C221A604FF079
:10187000FF3309E0084B1B68FB60074B1A687B6865
:101880001344054A1360FB6818461837BD4680BDEF
:101890000050002000040000B4010020D801002006
:1018A00080B400AF00BFBD4680BC704780B584B037
:1018B00000AF7860224BDB689847214B5B69984703
:1018C0001F4B5B6A002B03D01D4B9B6A002B14D16E
:1018D0001B4B1B6A7A68120CD2B210469847184B01
:1018E0001B6A7A68120AD2B210469847144B1B6AD8
:1018F0007A68D2B21046984711E07B681B0CDBB2C5
:101900003B737B681B0ADBB27B737B68DBB2BB7308
:101910000B4B9B6A07F10C02032110469847084BBA
:10192000DB6998470346FB73054B9B699847044B5B
:101930001B699847FB7B18461037BD4680BD00BF2A
:101940000800002080B584B000AF78600B46FB70C3
:10195000224BDB689847214B5B6998477B6843F0D3
:1019600004037B601D4B9B6A002B19D11B4B1B6A28
:101970007A68120CD2B210469847184B1B6A7A68E4
:10198000120AD2B210469847144B1B6A7A68D2B238
:1019900010469847114B1B6AFA781046984713E097
:1019A0007B681B0CDBB23B737B681B0ADBB27B736F
:1019B0007B68DBB2BB73FB78FB73084B9B6A07F158
:1019C0000C02042110469847044B9B699847034B2F
:1019D0001B69984700BF1037BD4680BD0800002036
:1019E00090B587B000AFF860B9601346FB802B4B11
:1019F000DB689847294B5B699847284B5B6A002B4B
:101A000003D0264B9B6A002B26D1244B1B6AFA6815
:101A1000120CD2B210469847204B1B6AFA68120A81
:101A2000D2B2104698471D4B1B6AFA68D2B21046D4
:101A300098470023FB820AE0184BDB69FA8AB968F1
:101A40008C18984703462370FB8A0133FB82FA8A7D
:101A5000FB889A42F0D317E0FB681B0CDBB23B74A7
:101A6000FB681B0ADBB27B74FB68DBB2BB740B4BFD
:101A70009B6A07F11002032110469847074B5B6AE7
:101A8000FA881146B8689847044B9B699847034BFE
:101A90001B69984700BF1C37BD4690BD0800002059
:101AA00080B586B000AFF860B9601346FB802B4B61
:101AB000DB689847294B5B699847FB6843F0040350
:101AC000FB60264B9B6A002B26D1244B1B6AFA68CD
:101AD000120CD2B210469847204B1B6AFA68120AC1
:101AE000D2B2104698471D4B1B6AFA68D2B2104614
:101AF00098470023FB820AE0184B1B6AFA8AB968F0
:101B00000A44127810469847FB8A0133FB82FA8A0E
:101B1000FB889A42F0D317E0FB681B0CDBB23B74E6
:101B2000FB681B0ADBB27B74FB68DBB2BB740B4B3C
:101B30009B6A07F11002032110469847074B9B6AE6
:101B4000FA881146B8689847044B9B699847034B3D
:101B50001B69984700BF1837BD4680BD08000020AC
:101B600090B585B000AF0346FB710023FB810023D5
:101B7000BB81FB799B000133DB0003F50053184662
:101B8000FFF794FE0346BB81BB891B029CB2FB7925
:101B90009B000133DB0003F504531846FFF786FE74
:101BA00003469BB22344BB81BB89002B1AD0FB792F
:101BB0009B000133DB0003F500531846FFF776FE68
:101BC0000346FB81FB891B029CB2FB799B0001331E
:101BD000DB0003F504531846FFF768FE03469BB28B
:101BE0002344FB81FA89BB899A42C2D1FB891846FA
:101BF0001437BD4690BD90B585B000AF034639603F
:101C0000FB711346BB800023FB810023BB60BB88B4
:101C1000002B48D0FB799B000133DB0003F5105308
:101C20001846FFF743FE03469BB21B029CB2FB79AA
:101C30009B000133DB0003F514531846FFF736FE13
:101C400003469BB22344FB81FB891B02FA79920075
:101C50000232D2001344BB60BB881A463968B868A8
:101C6000FFF71EFFFA89BB881344FB81FB799B00B9
:101C70000133DB0003F510531A46FB891B0A9BB2A4
:101C8000DBB219461046FFF75DFEFB799B0001337E
:101C9000DB0003F514531A46FB89DBB219461046E4
:101CA000FFF750FE00E000BF1437BD4690BD0000B6
:101CB00080B500AF00221021024800F007FE00BFEF
:101CC00080BD00BF0008014080B500AF0122102197
:101CD000024800F0FBFD00BF80BD00BF00080140CE
:101CE00080B582B000AFF91D4FF0FF3301220448E8
:101CF00002F021FCFB7918460837BD4680BD00BFC5
:101D00001C01002080B582B000AF0346FB71F91DB5
:101D10004FF0FF330122034802F0CAFA00BF083730
:101D2000BD4680BD1C01002080B58CB000AFF860BE
:101D3000B9607A603B601E4A07F1280392E803000D
:101D400083E803001B491C4800F0A2F81B491C480B
:101D500000F0C2F807F1280207F1280311461846DF
:101D600000F032F907F1100300221A605A609A60FD
:101D7000DA601A61C3F81320FA6807F110031068DB
:101D8000186092889A80BB681B68C7F816307B6819
:101D90001B68C7F81A303B681B68C7F81E3007F18C
:101DA0001003184600F09CF900BF3037BD4680BDD7
:101DB0000C5D0008C91C0008B11C0008051D0008C6
:101DC000E11C000890B587B002AFB9607A601A468E
:101DD0000346FB731346BB8100BFB868FEF7B8F932
:101DE00003469AB2F87BBB8900937B68B968FFF71A
:101DF00005FB0446B868FEF7ABF903469C42ECD1FC
:101E000000BF00BF1437BD4690BD80B400AF00BF17
:101E1000BD4680BC704780B400AF00BFBD4680BCEB
:101E2000704780B400AF00BFBD4680BC704780B42F
:101E300000AF00BFBD4680BC704780B483B000AF28
:101E400078607B681B78DBB218460C37BD4680BCD7
:101E5000704780B483B000AF78600B46FB707B683E
:101E6000FA781A7000BF0C37BD4680BC704780B44A
:101E700000AF00231846BD4680BC704780B483B0D5
:101E800000AF0346FB7100BF0C37BD4680BC7047F6
:101E900080B483B000AF786039607B68002B02D0DB
:101EA0003B68002B06D1094B094A5A61074B094A86
:101EB0009A6106E0054A7B685361044A3B68936176
:101EC00000BF00BF0C37BD4680BC70470800002033
:101ED000231E00082F1E000880B483B000AF786076
:101EE000396000BF0F4B1B8803F40073002BF9D03F
:101EF0007B68002B02D03B68002B06D1094B0A4AB5
:101F0000DA61084B094A1A6206E0064A7B68D36127
:101F1000044A3B68136200BF00BF0C37BD4680BC5B
:101F2000704700BF080000206F1E00087D1E0008DB
:101F300080B586B000AF3B1D062219464FF41060F5
:101F4000FFF74EFD07F11403042219464FF4807089
:101F5000FFF746FD07F11003042219464FF4A06075
:101F6000FFF73EFD07F10C03042219464FF47060A1
:101F7000FFF736FD80210020FFF7E4FC0020FFF78B
:101F800095FC3B1D062219464FF41060FFF788FDB3
:101F900007F11403042219464FF48070FFF780FD07
:101FA00007F11003042219464FF4A060FFF778FDF3
:101FB00007F10C03042219464FF47060FFF770FD1F
:101FC00000BF1837BD4680BD80B584B000AF7860D3
:101FD00039600023BB73FFF7ABFF7B68002B3BD05E
:101FE0000023BB730023FB7315E097F90F307A6869
:101FF00013441A78BB7B1344DBB2BB7397F90E30E2
:10200000102B02DD4FF0FF3366E097F90F30DBB2A3
:102010000133DBB2FB7397F90F30072BE5DD0023AB
:10202000FB7315E097F90F309B000133DB0003F5DC
:10203000F853184697F90F307A6813441B781946FD
:10204000FFF780FC97F90F30DBB20133DBB2FB7393
:1020500097F90F30072BE5DD3B68002B3BD00023C1
:10206000BB730023FB7315E097F90F303A681344F4
:102070001A78BB7B1344DBB2BB7397F90E30102B7D
:1020800002DD4FF0FF3327E097F90F30DBB2013369
:10209000DBB2FB7397F90F30072BE5DD0023FB73F1
:1020A00015E097F90F309B000133DB0003F5F05387
:1020B000184697F90F303A6813441B781946FFF712
:1020C00041FC97F90F30DBB20133DBB2FB7397F9B8
:1020D0000F30072BE5DD002318461037BD4680BDC5
:1020E00080B582B000AF78607B68062219464FF455
:1020F0001060FFF7D5FC7B680E33042219464FF4BD
:102100008070FFF7CDFC7B680A33042219464FF438
:10211000A060FFF7C5FC7B680633042219464FF424
:102120007060FFF7BDFC7B689A7C0B4B1A707B6874
:10213000DA7C094B5A707B681A7D074B9A707B6872
:102140005A7D054BDA707B689A7D044B1A7000BF8C
:102150000837BD4680BD00BFB8010020BC0100208B
:10216000FFF79EFB0B480C490C4A002302E0D458B1
:10217000C4500433C4188C42F9D3094A094C0023D3
:1021800001E013600432A242FBD302F09FFEFEF78F
:102190003FFE704700000020A0000020F05D000816
:1021A000A0000020D4010020FEE7000080B500AFB1
:1021B000084B1B68074A43F010031360032000F02C
:1021C00047F90F2000F008F8FFF74EFA00231846F1
:1021D00080BD00BF0020024080B582B000AF7860B3
:1021E000124B1A68124B1B7819464FF47A73B3FBE3
:1021F000F1F3B2FBF3F3184600F05FF90346002B4E
:1022000001D001230EE07B680F2B0AD800227968E9
:102210004FF0FF3000F027F9064A7B681360002377
:1022200000E0012318460837BD4680BD04000020A9
:10223000380000203400002080B400AF054B1B782C
:102240001A46054B1B681344034A136000BFBD4682
:1022500080BC704738000020C001002080B400AF6F
:10226000024B1B681846BD4680BC7047C001002069
:1022700080B584B000AF7860FFF7F0FFB8607B688E
:10228000FB60FB68B3F1FF3F05D00A4B1B781A4691
:10229000FB681344FB6000BFFFF7E0FF0246BB682A
:1022A000D31AFA689A42F7D800BF00BF1037BD466C
:1022B00080BD00BF3800002080B485B000AF7860DA
:1022C0007B6803F00703FB600C4BDB68BB60BA68FC
:1022D0004FF6FF031340BB60FB681A02BB68134351
:1022E00043F0BF6343F40033BB60044ABB68D36070
:1022F00000BF1437BD4680BC704700BF00ED00E052
:1023000080B400AF044BDB681B0A03F007031846D8
:10231000BD4680BC704700BF00ED00E080B483B0D4
:1023200000AF0346FB7197F90730002B0BDBFB79FD
:1023300003F01F02064997F907305B09012000FAF4
:1023400002F241F8232000BF0C37BD4680BC704725
:1023500000E100E080B483B000AF03463960FB7158
:1023600097F90730002B0ADB3B68DAB20C4997F982
:1023700007301201D2B20B4483F800230AE03B6815
:10238000DAB20849FB7903F00F03043B1201D2B221
:102390000B441A7600BF0C37BD4680BC704700BFA7
:1023A00000E100E000ED00E080B489B000AFF8602B
:1023B000B9607A60FB6803F00703FB61FB69C3F156
:1023C0000703042B28BF0423BB61FB690433062BDE
:1023D00002D9FB69033B00E000237B614FF0FF3231
:1023E000BB6902FA03F3DA43BB681A407B699A407F
:1023F0004FF0FF317B6901FA03F3D9437B680B404F
:10240000134318462437BD4680BC704780B582B060
:1024100000AF78607B68013BB3F1807F01D301237B
:102420000FE00A4A7B68013B53600F214FF0FF30F9
:10243000FFF790FF054B00229A60044B07221A60B9
:10244000002318460837BD4680BD00BF10E000E0FD
:1024500080B582B000AF78607868FFF72DFF00BFCD
:102460000837BD4680BD80B586B000AF0346B96071
:102470007A60FB7300237B61FFF742FF78617A6823
:10248000B9687869FFF790FF024697F90F30114657
:102490001846FFF75FFF00BF1837BD4680BD80B507
:1024A00082B000AF0346FB7197F907301846FFF77B
:1024B00035FF00BF0837BD4680BD80B582B000AF94
:1024C00078607868FFF7A2FF034618460837BD46D4
:1024D00080BD000080B584B000AF78600023FB733E
:1024E0007B6893F82130DBB2022B05D07B68042295
:1024F0009A630123FB7351E07B681B681A687B6851
:102500001B6822F00E021A607B681B681A687B68E1
:102510001B6822F001021A607B681B68224A934202
:1025200029D07B681B68214A934222D07B681B68B4
:102530001F4A93421AD07B681B681E4A934212D0EE
:102540007B681B681C4A93420AD07B681B681B4A45
:10255000934202D14FF480130EE04FF080730BE0F2
:102560004FF4803308E04FF4805305E04FF480735C
:1025700002E0102300E00123114A53607B6801222E
:1025800083F821207B68002283F820207B685B6B26
:10259000002B03D07B685B6B78689847FB7B184601
:1025A0001037BD4680BD00BF080002401C0002403D
:1025B0003000024044000240580002406C000240DB
:1025C0000000024080B48BB000AF78603960002317
:1025D0007B6200233B6269E101227B6A02FA03F31A
:1025E000FB613B681B68FA691340BB61BA69FB6910
:1025F0009A4240F058813B685B689A4A93425ED0A9
:10260000984A934275D8984A934258D0964A934232
:102610006FD8964A934252D0944A934269D8944ACA
:1026200093424CD0924A934263D8924A934246D006
:10263000904A93425DD8122B2AD8122B59D801A266
:1026400052F823F0BF26000899260008AB260008A0
:10265000ED260008F3260008F3260008F3260008FC
:10266000F3260008F3260008F3260008F3260008E6
:10267000F3260008F3260008F3260008F3260008D6
:10268000F3260008F3260008A1260008B526000856
:10269000794A934213D02CE03B68DB683B6229E027
:1026A0003B68DB6804333B6224E03B68DB6808334B
:1026B0003B621FE03B68DB680C333B621AE03B681F
:1026C0009B68002B02D104233B6213E03B689B68AC
:1026D000012B05D108233B627B68FA691A6109E086
:1026E00008233B627B68FA695A6103E000233B627E
:1026F00000E000BFBB69FF2B01D87B6801E07B686D
:1027000004337B61BB69FF2B02D87B6A9B0002E02C
:102710007B6A083B9B003B617B691A680F213B6920
:1027200001FA03F3DB431A40396A3B6901FA03F308
:102730001A437B691A603B685B6803F08053002B87
:1027400000F0B1804D4B9B694C4A43F0010393610B
:102750004A4B9B6903F00103BB60BB68484A7B6A34
:102760009B08023352F82330FB607B6A03F00303BB
:102770009B000F2202FA03F3DB43FA681340FB606D
:102780007B68404A934213D07B683F4A93420DD006
:102790007B683E4A934207D07B683D4A934201D111
:1027A000032306E0042304E0022302E0012300E007
:1027B00000237A6A02F0030292009340FA681343FE
:1027C000FB602F497B6A9B080233FA6841F823209B
:1027D0003B685B6803F48013002B06D02D4B9A688E
:1027E0002C49BB6913438B6006E02A4B9A68BB698E
:1027F000DB43284913408B603B685B6803F400139C
:10280000002B06D0234BDA682249BB691343CB6007
:1028100006E0204BDA68BB69DB431E491340CB60FE
:102820003B685B6803F40033002B06D0194B5A68F1
:102830001849BB6913434B6006E0164B5A68BB69E5
:10284000DB43144913404B603B685B6803F48033FF
:10285000002B21D00F4B1A680E49BB6913430B6044
:1028600021E000BF000032100000311000002210F3
:102870000000211000001210000011100010024092
:102880000000014000080140000C01400010014020
:1028900000140140000401400B4B1A68BB69DB4384
:1028A000094913400B607B6A01337B623B681A68FD
:1028B0007B6A22FA03F3002B7FF48EAE00BF00BFC9
:1028C0002C37BD4680BC70470004014080B483B003
:1028D00000AF78600B467B8013467B707B78002BC3
:1028E00003D07A887B681A6103E07B881A047B68CE
:1028F0001A6100BF0C37BD4680BC704780B584B0FC
:1029000000AF78607B68002B01D101232BE17B684D
:1029100093F83D30DBB2002B06D17B68002283F8B0
:102920003C207868FEF7C2FE7B68242283F83D20B5
:102930007B681B681A687B681B6822F001021A60BA
:102940007B681B681A687B681B6842F400421A6047
:102950007B681B681A687B681B6822F400421A6057
:1029600001F0F0FBF8607B685B68814A934207D80E
:10297000FB68804A934294BF01230023DBB206E048
:10298000FB687D4A934294BF01230023DBB2002BF6
:1029900001D00123E7E0FB68784AA2FB03239B0CEC
:1029A000BB607B681B685B6823F03F017B681B682A
:1029B000BA680A435A607B681B681B6A23F03F01B0
:1029C0007B685B686A4A934202D8BB68013309E0BE
:1029D000BB684FF4967202FB03F3694AA2FB032320
:1029E0009B0901337A6812680B4313627B681B688A
:1029F000DB6923F44F4222F0FF027B685B685C498D
:102A00008B4219D8FB68591E7B685B685B00B1FB81
:102A1000F3F3591C40F6FC730B40002B0AD0FB6803
:102A2000591E7B685B685B00B1FBF3F30133C3F3B2
:102A30000B0351E004234FE07B689B68002B11D10E
:102A4000FB68581E7B6859680B465B000B44B0FB63
:102A5000F3F30133C3F30B03002B0CBF012300235B
:102A6000DBB212E0FB68581E7B6859680B469B007E
:102A70000B4499000B44B0FBF3F30133C3F30B0396
:102A8000002B0CBF01230023DBB2002B01D001235C
:102A900022E07B689B68002B0ED1FB68581E7B6888
:102AA00059680B465B000B44B0FBF3F30133C3F3EF
:102AB0000B0343F400430FE0FB68581E7B68596822
:102AC0000B469B000B4499000B44B0FBF3F301331E
:102AD000C3F30B0343F44043796809681343CB61A4
:102AE0007B681B681B6823F0C0017B68DA697B6820
:102AF0001B6A1A437B681B680A431A607B681B6861
:102B00009B6823F4034323F0FF037A6811697A6812
:102B1000D26811437A6812680B4393607B681B6824
:102B2000DB6823F0FF017B685A697B689B691A4365
:102B30007B681B680A43DA607B681B681A687B68DD
:102B40001B6842F001021A607B6800221A647B68ED
:102B5000202283F83D207B6800221A637B680022D4
:102B600083F83E20002318461037BD4680BD00BFC5
:102B7000A08601007F841E00FF083D0083DE1B430A
:102B8000D34D621080B588B002AFF8600846114698
:102B90001A4603467B810B463B811346FB80FFF7B9
:102BA0005DFB7861FB6893F83D30DBB2202B40F091
:102BB000D9807B690093192301226D49F86800F0E0
:102BC000C1FC0346002B01D00223CCE0FB6893F844
:102BD0003C30012B01D10223C5E0FB68012283F8C0
:102BE0003C20FB681B681B6803F00103012B07D026
:102BF000FB681B681A68FB681B6842F001021A60D8
:102C0000FB681B681A68FB681B6822F400621A6084
:102C1000FB68212283F83D20FB68402283F83E2098
:102C2000FB6800221A64FB683A6A5A62FB68BA8C35
:102C30005A85FB685B8D9AB2FB681A85FB684D4A22
:102C4000DA62F8883A8979897B690193BB6A0093D3
:102C50000346F86800F0F8FA0346002B52D001232F
:102C600081E07A69B96AF86800F086FD0346002BB6
:102C70000DD0FB681B6C042B07D1FB681B681A681E
:102C8000FB681B6842F400721A6001236BE0FB686A
:102C90005B6A1A78FB681B681A61FB685B6A5A1CDE
:102CA000FB685A62FB681B8D013B9AB2FB681A8570
:102CB000FB685B8D9BB2013B9AB2FB685A85FB684F
:102CC0001B685B6903F00403042B1BD1FB681B8D9D
:102CD000002B17D0FB685B6A1A78FB681B681A61C7
:102CE000FB685B6A5A1CFB685A62FB681B8D013BE0
:102CF0009AB2FB681A85FB685B8D9BB2013B9AB266
:102D0000FB685A85FB681B8D002BAAD17A69B96ACA
:102D1000F86800F079FD0346002B0DD0FB681B6CB2
:102D2000042B07D1FB681B681A68FB681B6842F418
:102D300000721A60012316E0FB681B681A68FB68C2
:102D40001B6842F400721A60FB68202283F83D2061
:102D5000FB68002283F83E20FB68002283F83C20B9
:102D6000002300E0022318461837BD4680BD00BF8F
:102D7000020010000000FFFF80B58CB002AFF860C9
:102D8000084611461A4603467B810B463B81134693
:102D9000FB8000233B62FFF761FA7862FB6893F8DF
:102DA0003D30DBB2202B40F044827B6A0093192334
:102DB00001228249F86800F0C5FB0346002B01D0D0
:102DC000022337E2FB6893F83C30012B01D1022348
:102DD00030E2FB68012283F83C20FB681B681B681B
:102DE00003F00103012B07D0FB681B681A68FB681E
:102DF0001B6842F001021A60FB681B681A68FB68D6
:102E00001B6822F400621A60FB68222283F83D20CE
:102E1000FB68402283F83E20FB6800221A64FB68AE
:102E20003A6B5A62FB68BA8E5A85FB685B8D9AB220
:102E3000FB681A85FB68624ADA62F8883A89798900
:102E40007B6A0193BB6B00930346F86800F092FA2B
:102E50000346002B01D00123ECE1FB681B8D002B06
:102E600013D10023FB61FB681B685B69FB61FB6896
:102E70001B689B69FB61FB69FB681B681A68FB6840
:102E80001B6842F400721A60C0E1FB681B8D012BC5
:102E90001ED1FB681B681A68FB681B6822F48062FD
:102EA0001A6072B600BF0023BB61FB681B685B69D8
:102EB000BB61FB681B689B69BB61BB69FB681B68E6
:102EC0001A68FB681B6842F400721A6062B635E04B
:102ED000FB681B8D022B1ED1FB681B681A68FB6800
:102EE0001B6842F400621A6072B600BF00237B6167
:102EF000FB681B685B697B61FB681B689B697B6186
:102F00007B69FB681B681A68FB681B6822F4806297
:102F10001A6062B612E0FB681B681A68FB681B68DF
:102F200042F480621A6000233B61FB681B685B69A6
:102F30003B61FB681B689B693B613B6966E1FB6821
:102F40001B8D032B00F21F81FB681B8D012B23D1EE
:102F50007A6AB96BF86800F09FFC0346002B01D039
:102F6000012367E1FB681B681A69FB685B6AD2B2E0
:102F70001A70FB685B6A5A1CFB685A62FB681B8DFF
:102F8000013B9AB2FB681A85FB685B8D9BB2013BE3
:102F90009AB2FB685A8539E1FB681B8D022B52D12E
:102FA0007B6A0093BB6B00220649F86800F0CAFAFE
:102FB0000346002B08D001233CE100BF02001000B3
:102FC0000000FFFF0400010072B600BFFB681B6831
:102FD0001A68FB681B6842F400721A60FB681B6881
:102FE0001A69FB685B6AD2B21A70FB685B6A5A1C8A
:102FF000FB685A62FB681B8D013B9AB2FB681A851D
:10300000FB685B8D9BB2013B9AB2FB685A8562B646
:1030100000BFFB681B681A69FB685B6AD2B21A7052
:10302000FB685B6A5A1CFB685A62FB681B8D013B9C
:103030009AB2FB681A85FB685B8D9BB2013B9AB222
:10304000FB685A85E2E07B6A0093BB6B00227B49F8
:10305000F86800F077FA0346002B01D00123E9E07D
:10306000FB681B681A68FB681B6822F480621A60A0
:1030700072B600BFFB681B681A69FB685B6AD2B254
:103080001A70FB685B6A5A1CFB685A62FB681B8DEE
:10309000013B9AB2FB681A85FB685B8D9BB2013BD2
:1030A0009AB2FB685A85664B1B68DB08654AA2FB2F
:1030B00003231A0A13469B001344DA00D31A3B6217
:1030C0003B6A013B3B623B6A002B18D1FB68002244
:1030D0001A63FB68202283F83D20FB68002283F8F6
:1030E0003E20FB681B6C43F02002FB681A6462B64A
:1030F00000BFFB68002283F83C2001239AE0FB68B4
:103100001B685B6903F00403042BD9D1FB681B68BF
:103110001A68FB681B6842F400721A60FB681B683F
:103120001A69FB685B6AD2B21A70FB685B6A5A1C48
:10313000FB685A62FB681B8D013B9AB2FB681A85DB
:10314000FB685B8D9BB2013B9AB2FB685A8562B605
:1031500000BFFB681B681A69FB685B6AD2B21A7011
:10316000FB685B6A5A1CFB685A62FB681B8D013B5B
:103170009AB2FB681A85FB685B8D9BB2013B9AB2E1
:10318000FB685A8542E07A6AB96BF86800F084FB04
:103190000346002B01D001234CE0FB681B681A6931
:1031A000FB685B6AD2B21A70FB685B6A5A1CFB68E8
:1031B0005A62FB681B8D013B9AB2FB681A85FB685B
:1031C0005B8D9BB2013B9AB2FB685A85FB681B681A
:1031D0005B6903F00403042B18D1FB681B681A69B0
:1031E000FB685B6AD2B21A70FB685B6A5A1CFB68A8
:1031F0005A62FB681B8D013B9AB2FB681A85FB681B
:103200005B8D9BB2013B9AB2FB685A85FB681B8DB4
:10321000002B7FF494AEFB68202283F83D20FB68EE
:10322000002283F83E20FB68002283F83C20002324
:1032300000E0022318462837BD4680BD0400010087
:103240000400002089B5F81480B588B002AFF8609A
:10325000084611461A4603467B810B463B811346BE
:10326000FB80FB681B681A68FB681B6842F480726D
:103270001A607B6A00933B6A00224FF00111F868E4
:1032800000F060F90346002B0DD0FB681B681B683B
:1032900003F48073B3F5807F03D1FB684FF40072B1
:1032A0001A6403235FE07B89DBB21A46FB681B6864
:1032B00002F0FE021A617B6A3A6A2D49F86800F052
:1032C000BBF90346002B01D001234CE000237B61B6
:1032D000FB681B685B697B61FB681B689B697B61A2
:1032E0007B697A6A396AF86800F046FA0346002B6F
:1032F0000DD0FB681B6C042B07D1FB681B681A6898
:10330000FB681B6842F400721A6001232BE0FB8803
:10331000012B05D13B89DAB2FB681B681A6121E0F9
:103320003B891B0A9BB2DAB2FB681B681A617A6A96
:10333000396AF86800F020FA0346002B0DD0FB68CC
:103340001B6C042B07D1FB681B681A68FB681B68A1
:1033500042F400721A60012305E03B89DAB2FB688F
:103360001B681A61002318461837BD4680BD00BF90
:103370000200010080B588B002AFF860084611462F
:103380001A4603467B810B463B811346FB80FB6854
:103390001B681A68FB681B6842F480621A60FB684D
:1033A0001B681A68FB681B6842F480721A607B6AAB
:1033B00000933B6A00224FF00111F86800F0C2F858
:1033C0000346002B0DD0FB681B681B6803F4807359
:1033D000B3F5807F03D1FB684FF400721A640323B6
:1033E000AAE07B89DBB21A46FB681B6802F0FE028A
:1033F0001A617B6A3A6A5249F86800F01DF903467F
:10340000002B01D0012397E000237B61FB681B6840
:103410005B697B61FB681B689B697B617B697A6A7E
:10342000396AF86800F0A8F90346002B0DD0FB6854
:103430001B6C042B07D1FB681B681A68FB681B68B0
:1034400042F400721A60012376E0FB88012B05D15B
:103450003B89DAB2FB681B681A6121E03B891B0AD1
:103460009BB2DAB2FB681B681A617A6A396AF8683B
:1034700000F082F90346002B0DD0FB681B6C042B77
:1034800007D1FB681B681A68FB681B6842F400726E
:103490001A60012350E03B89DAB2FB681B681A61AD
:1034A0007A6A396AF86800F067F90346002B0DD094
:1034B000FB681B6C042B07D1FB681B681A68FB6850
:1034C0001B6842F400721A60012335E0FB681B6838
:1034D0001A68FB681B6842F480721A607B6A00936A
:1034E0003B6A00224FF00111F86800F02BF8034608
:1034F000002B0DD0FB681B681B6803F48073B3F5C9
:10350000807F03D1FB684FF400721A64032313E039
:103510007B89DBB243F00103DAB2FB681B681A61F6
:103520007B6A3A6A0649F86800F086F80346002B81
:1035300001D0012300E0002318461837BD4680BDA6
:103540000200010080B584B000AFF860B9603B6054
:103550001346FB7148E03B68B3F1FF3F44D0FEF7F0
:103560007DFE0246BB69D31A3A689A4202D33B6891
:10357000002B39D1BB681B0CDBB2012B0DD1FB68D2
:103580001B685B69DA43BB6813409BB2002B0CBF1E
:1035900001230023DBB21A460CE0FB681B689B6921
:1035A000DA43BB6813409BB2002B0CBF01230023FE
:1035B000DBB21A46FB799A4216D1FB6800221A63E5
:1035C000FB68202283F83D20FB68002283F83E2020
:1035D000FB681B6C43F02002FB681A64FB68002246
:1035E00083F83C20012323E0BB681B0CDBB2012BDA
:1035F0000DD1FB681B685B69DA43BB6813409BB263
:10360000002B0CBF01230023DBB21A460CE0FB6841
:103610001B689B69DA43BB6813409BB2002B0CBF4D
:1036200001230023DBB21A46FB799A4293D0002390
:1036300018461037BD4680BD80B584B000AFF86035
:10364000B9607A603B6071E0FB681B685B6903F4FA
:103650008063B3F5806F23D1FB681B681A68FB6831
:103660001B6842F400721A60FB681B686FF480628A
:103670005A61FB6800221A63FB68202283F83D2010
:10368000FB68002283F83E20FB681B6C43F00402B9
:10369000FB681A64FB68002283F83C20012367E082
:1036A0007B68B3F1FF3F41D0FEF7D8FD02463B688F
:1036B000D31A7A689A4202D37B68002B36D1BB6852
:1036C0001B0CDBB2012B0CD1FB681B685B69DA4376
:1036D000BB6813409BB2002B14BF01230023DBB255
:1036E0000BE0FB681B689B69DA43BB6813409BB225
:1036F000002B14BF01230023DBB2002B16D0FB6884
:1037000000221A63FB68202283F83D20FB68002218
:1037100083F83E20FB681B6C43F02002FB681A64B0
:10372000FB68002283F83C20012321E0BB681B0CCE
:10373000DBB2012B0CD1FB681B685B69DA43BB6809
:1037400013409BB2002B14BF01230023DBB20BE01C
:10375000FB681B689B69DA43BB6813409BB2002B74
:1037600014BF01230023DBB2002B7FF46DAF0023D5
:1037700018461037BD4680BD80B584B000AFF860F4
:10378000B9607A6034E0F86800F0E3F80346002B93
:1037900001D0012334E0BB68B3F1FF3F28D0FEF72E
:1037A0005DFD02467B68D31ABA689A4202D3BB68B1
:1037B000002B1DD1FB681B685B6903F08003802B25
:1037C00016D0FB6800221A63FB68202283F83D2094
:1037D000FB68002283F83E20FB681B6C43F020024C
:1037E000FB681A64FB68002283F83C20012307E091
:1037F000FB681B685B6903F08003802BC3D1002347
:1038000018461037BD4680BD80B584B000AFF86063
:10381000B9607A6034E0F86800F09BF80346002B4A
:1038200001D0012334E0BB68B3F1FF3F28D0FEF79D
:1038300015FD02467B68D31ABA689A4202D3BB6868
:10384000002B1DD1FB681B685B6903F00403042B8C
:1038500016D0FB6800221A63FB68202283F83D2003
:10386000FB68002283F83E20FB681B6C43F02002BB
:10387000FB681A64FB68002283F83C20012307E000
:10388000FB681B685B6903F00403042BC3D10023AE
:1038900018461037BD4680BD80B584B000AFF860D3
:1038A000B9607A6049E0FB681B685B6903F010034C
:1038B000102B19D1FB681B686FF010025A61FB686E
:1038C00000221A63FB68202283F83D20FB68002257
:1038D00083F83E20FB681A6CFB681A64FB680022C0
:1038E00083F83C20012330E0FEF7B8FC02467B68F9
:1038F000D31ABA689A4202D3BB68002B1DD1FB6869
:103900001B685B6903F04003402B16D0FB68002264
:103910001A63FB68202283F83D20FB68002283F8AD
:103920003E20FB681B6C43F02002FB681A64FB68B6
:10393000002283F83C20012307E0FB681B685B69D9
:1039400003F04003402BAED1002318461037BD468C
:1039500080BD80B483B000AF78607B681B685B6912
:1039600003F48063B3F5806F1BD17B681B686FF431
:1039700080625A617B6800221A637B68202283F888
:103980003D207B68002283F83E207B681B6C43F05F
:1039900004027B681A647B68002283F83C200123C0
:1039A00000E0002318460C37BD4680BC704700007D
:1039B00080B586B000AF78607B68002B01D1012311
:1039C00072E27B681B6803F00103002B00F0878024
:1039D000924B5B6803F00C03042B0CD08F4B5B689D
:1039E00003F00C03082B12D18C4B5B6803F480337B
:1039F000B3F5803F0BD1894B1B6803F40033002BD8
:103A00006CD07B685B68002B68D101234CE27B683B
:103A10005B68B3F5803F06D1804B1B687F4A43F457
:103A2000803313602EE07B685B68002B0CD17B4BEE
:103A30001B687A4A23F480331360784B1B68774AFB
:103A400023F4802313601DE07B685B68B3F5A02F2F
:103A50000CD1724B1B68714A43F4802313606F4B87
:103A60001B686E4A43F4803313600BE06B4B1B689A
:103A70006A4A23F480331360684B1B68674A23F457
:103A8000802313607B685B68002B13D0FEF7E6FB96
:103A9000386108E0FEF7E2FB02463B69D31A642B6B
:103AA00001D9032300E25D4B1B6803F40033002BB4
:103AB000F0D014E0FEF7D2FB386108E0FEF7CEFB51
:103AC00002463B69D31A642B01D90323ECE1534B23
:103AD0001B6803F40033002BF0D100E000BF7B68CB
:103AE0001B6803F00203002B63D04C4B5B6803F0B0
:103AF0000C03002B0BD0494B5B6803F00C03082B25
:103B00001CD1464B5B6803F48033002B16D1434B2A
:103B10001B6803F00203002B05D07B681B69012B97
:103B200001D00123C0E13D4B1B6823F0F8027B6804
:103B30005B69DB00394913430B603AE07B681B6922
:103B4000002B20D0364B01221A60FEF787FB38612C
:103B500008E0FEF783FB02463B69D31A022B01D92A
:103B60000323A1E12D4B1B6803F00203002BF0D0CF
:103B70002A4B1B6823F0F8027B685B69DB0027494E
:103B800013430B6015E0264B00221A60FEF766FB1C
:103B9000386108E0FEF762FB02463B69D31A022B4C
:103BA00001D9032380E11D4B1B6803F00203002BA6
:103BB000F0D17B681B6803F00803002B3AD07B68C8
:103BC0009B69002B19D0174B01221A60FEF746FBA8
:103BD000386108E0FEF742FB02463B69D31A022B2C
:103BE00001D9032360E10D4B5B6A03F00203002B54
:103BF000F0D0012000F0BAFA1CE00A4B00221A6053
:103C0000FEF72CFB38610FE0FEF728FB02463B690C
:103C1000D31A022B08D9032346E100BF001002404B
:103C20000000424280044242924B5B6A03F002036E
:103C3000002BE9D17B681B6803F00403002B00F024
:103C4000A6800023FB758B4BDB6903F08053002BB0
:103C50000DD1884BDB69874A43F08053D361854B94
:103C6000DB6903F08053BB60BB680123FB75824BAB
:103C70001B6803F48073002B18D17F4B1B687E4AAE
:103C800043F480731360FEF7E9FA386108E0FEF749
:103C9000E5FA02463B69D31A642B01D9032303E1F9
:103CA000754B1B6803F48073002BF0D07B68DB68D6
:103CB000012B06D16F4B1B6A6E4A43F0010313625E
:103CC0002DE07B68DB68002B0CD16A4B1B6A694ACC
:103CD00023F001031362674B1B6A664A23F0040357
:103CE00013621CE07B68DB68052B0CD1614B1B6AFF
:103CF000604A43F0040313625E4B1B6A5D4A43F063
:103D0000010313620BE05B4B1B6A5A4A23F0010369
:103D10001362584B1B6A574A23F0040313627B68F3
:103D2000DB68002B15D0FEF799FA38610AE0FEF740
:103D300095FA02463B69D31A41F28832934201D97F
:103D40000323B1E04B4B1B6A03F00203002BEED0C0
:103D500014E0FEF783FA38610AE0FEF77FFA0246C4
:103D60003B69D31A41F28832934201D903239BE085
:103D7000404B1B6A03F00203002BEED1FB7D012BAD
:103D800005D13C4BDB693B4A23F08053D3617B6810
:103D9000DB69002B00F08780364B5B6803F00C0377
:103DA000082B61D07B68DB69022B46D1334B0022A4
:103DB0001A60FEF753FA386108E0FEF74FFA024640
:103DC0003B69D31A022B01D903236DE0294B1B68F1
:103DD00003F00073002BF0D17B681B6AB3F5803FC2
:103DE00008D1244B5B6823F400327B689B6821492F
:103DF00013434B601F4B5B6823F474127B68196A92
:103E00007B685B6A0B431B4913434B601B4B0122CE
:103E10001A60FEF723FA386108E0FEF71FFA02463F
:103E20003B69D31A022B01D903233DE0114B1B68D8
:103E300003F00073002BF0D035E0104B00221A6025
:103E4000FEF70CFA386108E0FEF708FA02463B6913
:103E5000D31A022B01D9032326E0064B1B6803F07B
:103E60000073002BF0D11EE07B68DB69012B07D1CA
:103E7000012319E00010024000700040600042423F
:103E80000B4B5B68FB60FB6803F480327B681B6A4A
:103E90009A4206D1FB6803F470127B685B6A9A420F
:103EA00001D0012300E0002318461837BD4680BD2D
:103EB0000010024080B584B000AF786039607B6844
:103EC000002B01D10123D0E06A4B1B6803F00703EC
:103ED0003A689A4210D9674B1B6823F0070265497C
:103EE0003B6813430B60634B1B6803F007033A689E
:103EF0009A4201D00123B8E07B681B6803F00203FB
:103F0000002B20D07B681B6803F00403002B05D036
:103F1000594B5B68584A43F4E06353607B681B6805
:103F200003F00803002B05D0534B5B68524A43F45F
:103F300060535360504B5B6823F0F0027B689B68D2
:103F40004D4913434B607B681B6803F00103002B52
:103F500040D07B685B68012B07D1474B1B6803F49B
:103F60000033002B15D101237FE07B685B68022BB7
:103F700007D1414B1B6803F00073002B09D10123CB
:103F800073E03D4B1B6803F00203002B01D10123BA
:103F90006BE0394B5B6823F003027B685B68364952
:103FA00013434B60FEF75AF9F8600AE0FEF756F942
:103FB0000246FB68D31A41F28832934201D90323A7
:103FC00053E02D4B5B6803F00C027B685B689B0041
:103FD0009A42EBD1274B1B6803F007033A689A42D9
:103FE00010D2244B1B6823F0070222493B6813437D
:103FF0000B60204B1B6803F007033A689A4201D01C
:10400000012332E07B681B6803F00403002B08D017
:10401000194B5B6823F4E0627B68DB681649134345
:104020004B607B681B6803F00803002B09D0124B20
:104030005B6823F460527B681B69DB000E49134305
:104040004B6000F021F802460B4B5B681B0903F044
:104050000F030A49CB5C22FA03F3094A1360094BA8
:104060001B681846FEF7B8F8002318461037BD46FF
:1040700080BD00BF0020024000100240145D000817
:10408000040000203400002080B487B000AF00237B
:10409000FB600023BB6000237B6100237B60002367
:1040A0003B611E4B5B68FB60FB6803F00C03042B59
:1040B00002D0082B03D027E0194B3B6127E0FB68B7
:1040C0009B0C03F00F03174AD35C7B60FB6803F47F
:1040D0008033002B10D0114B5B685B0C03F00103A5
:1040E000114AD35CBB607B680D4A03FB02F2BB68DC
:1040F000B2FBF3F37B6104E07B680C4A02FB03F341
:104100007B617B693B6102E0054B3B6100BF3B6922
:1041100018461C37BD4680BC704700BF00100240E7
:1041200000127A002C5D00083C5D000800093D008B
:1041300080B400AF024B1B681846BD4680BC704778
:104140000400002080B500AFFFF7F2FF0246054BE8
:104150005B681B0A03F007030349CB5C22FA03F3F5
:10416000184680BD00100240245D000880B485B070
:1041700000AF78600A4B1B680A4AA2FB03235B0A64
:104180007A6802FB03F3FB6000BFFB685A1EFA600B
:10419000002BF9D100BF00BF1437BD4680BC70476B
:1041A00004000020D34D621080B582B000AF78606B
:1041B0007B68002B01D1012376E07B685B6A002BD2
:1041C00008D17B685B68B3F5827F09D07B680022E9
:1041D000DA6105E07B6800221A617B6800225A617F
:1041E0007B6800229A627B6893F85130DBB2002B27
:1041F00006D17B68002283F850207868FDF796FA94
:104200007B68022283F851207B681B681A687B68F0
:104210001B6822F040021A607B685B6803F48272BC
:104220007B689B6803F404431A437B68DB6803F4F0
:1042300000631A437B681B6903F002031A437B681F
:104240005B6903F001031A437B689B6903F4007305
:104250001A437B68DB6903F038031A437B681B6AE7
:1042600003F0800342EA03017B689B6A03F4005277
:104270007B681B680A431A607B689B691A0C7B6821
:104280001B6802F004025A607B681B68DA697B686D
:104290001B6822F40062DA617B6800225A657B6841
:1042A000012283F85120002318460837BD4680BDFF
:1042B00080B588B000AFF860B9603B601346FB8002
:1042C0000023FB77FB6893F85030012B01D10223C8
:1042D0002DE1FB68012283F85020FDF7BFFFB86194
:1042E000FB88FB82FB6893F85130DBB2012B02D0D4
:1042F0000223FB7716E1BB68002B02D0FB88002B62
:1043000002D10123FB770DE1FB68032283F85120E2
:10431000FB6800225A65FB68BA681A63FB68FA8872
:104320009A86FB68FA88DA86FB6800229A63FB6843
:1043300000229A87FB680022DA87FB6800225A6411
:10434000FB6800221A64FB689B68B3F5004F0FD12D
:10435000FB681B681A68FB681B6822F040021A6041
:10436000FB681B681A68FB681B6842F480421A608D
:10437000FB681B681B6803F04003402B07D0FB68F9
:104380001B681A68FB681B6842F040021A60FB68F1
:10439000DB68B3F5006F4FD1FB685B68002B02D080
:1043A000FB8A012B42D1FB681B6B1A88FB681B68D8
:1043B000DA60FB681B6B9A1CFB681A63FB68DB8E78
:1043C0009BB2013B9AB2FB68DA862FE0FB681B6860
:1043D0009B6803F00203022B12D1FB681B6B1A8847
:1043E000FB681B68DA60FB681B6B9A1CFB681A632E
:1043F000FB68DB8E9BB2013B9AB2FB68DA8615E064
:10440000FDF72CFF0246BB69D31A3A689A4203D8DB
:104410003B68B3F1FF3F02D13B68002B06D1032379
:10442000FB77FB68012283F851207BE0FB68DB8E81
:104430009BB2002BCAD150E0FB685B68002B02D016
:10444000FB8A012B44D1FB681A6BFB681B680C3399
:1044500012781A70FB681B6B5A1CFB681A63FB68A6
:10446000DB8E9BB2013B9AB2FB68DA8630E0FB68D8
:104470001B689B6803F00203022B13D1FB681A6BC5
:10448000FB681B680C3312781A70FB681B6B5A1C94
:10449000FB681A63FB68DB8E9BB2013B9AB2FB6838
:1044A000DA8615E0FDF7DAFE0246BB69D31A3A68F0
:1044B0009A4203D83B68B3F1FF3F02D13B68002B1F
:1044C00006D10323FB77FB68012283F8512029E002
:1044D000FB68DB8E9BB2002BC9D1BA693968F868DA
:1044E00000F0D0FC0346002B02D0FB6820225A6566
:1044F000FB689B68002B0AD100233B61FB681B68AB
:10450000DB683B61FB681B689B683B613B69FB6840
:104510005B6D002B02D00123FB7703E0FB680122D7
:1045200083F85120FB68002283F85020FB7F184657
:104530002037BD4680BD80B588B002AFF860B96055
:104540003B601346FB800023FB75FB6893F85130FA
:10455000DBB2012B02D00223FB75FBE0FB685B683A
:10456000B3F5827F12D1FB689B68002B0ED1FB68EC
:10457000042283F85120FA883B6800931346BA68F6
:10458000B968F86800F0EFF80346E8E0FB6893F8D4
:104590005030012B01D10223E1E0FB68012283F8B6
:1045A0005020FDF75BFE3861BB68002B02D0FB8812
:1045B000002B02D10123FB75CCE0FB68042283F8B9
:1045C0005120FB6800225A65FB68BA689A63FB6851
:1045D000FA889A87FB68FA88DA87FB6800221A63F0
:1045E000FB6800229A86FB680022DA86FB680022BC
:1045F0001A64FB6800225A64FB689B68B3F5004F9D
:104600000FD1FB681B681A68FB681B6822F0400228
:104610001A60FB681B681A68FB681B6822F48042FA
:104620001A60FB681B681B6803F04003402B07D02F
:10463000FB681B681A68FB681B6842F040021A603E
:10464000FB68DB68002B6AD132E0FB681B689B6863
:1046500003F00103012B15D1FB681B6803F10C0269
:10466000FB689B6B1278D2B21A70FB689B6B5A1C6A
:10467000FB689A63FB68DB8F9BB2013B9AB2FB68D5
:10468000DA8715E0FDF7EAFD02463B69D31A3A687E
:104690009A4203D83B68B3F1FF3F02D13B68002B3D
:1046A00006D10323FB75FB68012283F8512051E0FA
:1046B000FB68DB8F9BB2002BC7D135E0FB681B6822
:1046C0009B6803F00103012B13D1FB681B68DA68B8
:1046D000FB689B6B92B21A80FB689B6B9A1CFB6811
:1046E0009A63FB68DB8F9BB2013B9AB2FB68DA8767
:1046F00015E0FDF7B3FD02463B69D31A3A689A42CA
:1047000003D83B68B3F1FF3F02D13B68002B06D1D1
:104710000323FB75FB68012283F851201AE0FB6834
:10472000DB8F9BB2002BC9D13A693968F86800F079
:1047300057FB0346002B02D0FB6820225A65FB681A
:104740005B6D002B02D00123FB7503E0FB680122A7
:1047500083F85120FB68002283F85020FB7D184627
:104760001837BD4680BD80B58CB000AFF860B96029
:104770007A607B800123FB62002387F82B30FB6883
:1047800093F85030012B01D1022398E1FB680122FC
:1047900083F85020FDF762FD7862FB6893F8513092
:1047A00087F82330FB685B68FB617B887B8397F825
:1047B0002330012B0FD0FB69B3F5827F07D1FB6853
:1047C0009B68002B03D197F82330042B03D00223DE
:1047D00087F82B306DE1BB68002B05D07B68002B80
:1047E00002D07B88002B03D1012387F82B3060E1B6
:1047F000FB6893F85130DBB2042B03D0FB68052231
:1048000083F85120FB6800225A65FB687A689A6336
:10481000FB687A88DA87FB687A889A87FB68BA68C7
:104820001A63FB687A88DA86FB687A889A86FB685E
:1048300000221A64FB6800225A64FB681B681B682C
:1048400003F04003402B07D0FB681B681A68FB6825
:104850001B6842F040021A60FB68DB68B3F5006F2A
:104860007CD1FB685B68002B02D07B8B012B6AD16B
:10487000FB681B6B1A88FB681B68DA60FB681B6BA4
:104880009A1CFB681A63FB68DB8E9BB2013B9AB2F1
:10489000FB68DA8657E0FB681B689B6803F002033D
:1048A000022B1BD1FB68DB8E9BB2002B16D0FB6A60
:1048B000012B13D1FB681B6B1A88FB681B68DA603D
:1048C000FB681B6B9A1CFB681A63FB68DB8E9BB250
:1048D000013B9AB2FB68DA860023FB62FB681B6827
:1048E0009B6803F00103012B19D1FB68DB8F9BB29E
:1048F000002B14D0FB681B68DA68FB689B6B92B2D4
:104900001A80FB689B6B9A1CFB689A63FB68DB8FC1
:104910009BB2013B9AB2FB68DA870123FB62FDF789
:104920009DFC02467B6AD31ABA6B9A420BD8BB6BCA
:10493000B3F1FF3F07D0032387F82B30FB68012238
:1049400083F85120B5E0FB68DB8E9BB2002BA2D12F
:10495000FB68DB8F9BB2002B9DD180E0FB685B681E
:10496000002B02D07B8B012B6FD1FB681A6BFB688D
:104970001B680C3312781A70FB681B6B5A1CFB689F
:104980001A63FB68DB8E9BB2013B9AB2FB68DA8646
:104990005BE0FB681B689B6803F00203022B1CD1E1
:1049A000FB68DB8E9BB2002B17D0FB6A012B14D166
:1049B000FB681A6BFB681B680C3312781A70FB6873
:1049C0001B6B5A1CFB681A63FB68DB8E9BB2013BB6
:1049D0009AB2FB68DA860023FB62FB681B689B685F
:1049E00003F00103012B19D1FB68DB8F9BB2002B75
:1049F00014D0FB681B68DA68FB689B6BD2B21A7034
:104A0000FB689B6B5A1CFB689A63FB68DB8F9BB24D
:104A1000013B9AB2FB68DA870123FB62FDF71EFCBB
:104A200002467B6AD31ABA6B9A4203D8BB6BB3F1C6
:104A3000FF3F02D1BB6B002B07D1032387F82B303C
:104A4000FB68012283F8512033E0FB68DB8E9BB2C8
:104A5000002B9ED1FB68DB8F9BB2002B99D17A6A29
:104A6000B96BF86800F00EFA0346002B06D001235C
:104A700087F82B30FB6820225A651AE0FB689B6898
:104A8000002B0AD100237B61FB681B68DB687B611C
:104A9000FB681B689B687B617B69FB685B6D002B17
:104AA00003D0012387F82B3003E0FB68012283F851
:104AB0005120FB68002283F8502097F82B301846CD
:104AC0003037BD4680BD000080B588B000AF78604B
:104AD0007B681B685B68FB617B681B689B68BB61CC
:104AE000BB699B0903F00103002B0FD1BB6903F0E5
:104AF0000103002B0AD0FB699B0903F00103002B83
:104B000004D07B681B6C78689847BEE0BB695B0883
:104B100003F00103002B0AD0FB69DB0903F001035A
:104B2000002B04D07B685B6C78689847ADE0BB696C
:104B30005B0903F00103002B06D1BB699B0903F05D
:104B40000103002B00F0A180FB695B0903F0010366
:104B5000002B00F09A80BB699B0903F00103002B36
:104B600023D07B6893F85130DBB2032B11D07B68E4
:104B70005B6D43F004027B685A6500237B617B68B0
:104B80001B68DB687B617B681B689B687B617B695A
:104B90000BE000233B617B681B68DB683B617B6843
:104BA0001B689B683B613B696FE0BB695B0903F075
:104BB0000103002B14D07B685B6D43F001027B681E
:104BC0005A650023FB607B681B689B68FB607B6801
:104BD0001B681A687B681B6822F040021A60FB6839
:104BE0007B685B6D002B4FD07B681B685A687B68C5
:104BF0001B6822F0E0025A607B68012283F8512092
:104C0000FB6903F00203002B04D1FB6903F00103ED
:104C1000002B34D07B681B685A687B681B6822F0C5
:104C200003025A607B68DB6C002B11D07B68DB6C65
:104C3000174A5A637B68DB6C1846FDF74BFC03464A
:104C4000002B05D07B685B6D43F040027B685A65A2
:104C50007B689B6C002B16D07B689B6C0C4A5A635C
:104C60007B689B6C1846FDF735FC0346002B0AD089
:104C70007B685B6D43F040027B685A6503E07868AF
:104C800000F008F800E000BF00BF2037BD4680BD3F
:104C9000A74C000880B483B000AF786000BF0C3729
:104CA000BD4680BC704780B584B000AF78607B683B
:104CB0005B6AFB60FB680022DA87FB680022DA8609
:104CC000F868FFF7E7FF00BF1037BD4680BD000062
:104CD00080B588B000AFF860B9603B601346FB71E7
:104CE000FDF7BCFA0246BB6A9B1A3A681344FB61A3
:104CF000FDF7B4FAB861394B1B685B011B0DFA690B
:104D000002FB03F37B6154E03B68B3F1FF3F50D0FB
:104D1000FDF7A4FA0246BB69D31AFA699A4202D98E
:104D2000FB69002B3DD1FB681B685A68FB681B6858
:104D300022F0E0025A60FB685B68B3F5827F11D114
:104D4000FB689B68B3F5004F04D0FB689B68B3F524
:104D5000806F07D1FB681B681A68FB681B6822F02C
:104D600040021A60FB689B6AB3F5005F0FD1FB68D5
:104D70001B681A68FB681B6822F400521A60FB6803
:104D80001B681A68FB681B6842F400521A60FB68D3
:104D9000012283F85120FB68002283F8502003236E
:104DA00017E07B69002B01D10023FB617B69013B8C
:104DB0007B61FB681B689A68BB681340BA689A42BB
:104DC0000CBF01230023DBB21A46FB799A429BD128
:104DD000002318462037BD4680BD00BF04000020D8
:104DE00080B586B002AFF860B9607A60FB685B6836
:104DF000B3F5827F11D1FB689B68B3F5004F04D0F7
:104E0000FB689B68B3F5806F07D1FB681B681A6865
:104E1000FB681B6822F040021A60FB685B68B3F510
:104E2000827F17D1FB689B68B3F5806F12D17B68D6
:104E30000093BB6800220121F868FFF749FF034691
:104E4000002B1AD0FB685B6D43F02002FB685A65AB
:104E5000032313E07B680093BB6800228021F8687D
:104E6000FFF736FF0346002B07D0FB685B6D43F06E
:104E70002002FB685A65032300E000231846103720
:104E8000BD4680BD80B586B002AFF860B9607A607B
:104E90007B680093BB6800228021F868FFF718FF49
:104EA0000346002B07D0FB685B6D43F02002FB68D4
:104EB0005A65032300E0002318461037BD4680BD25
:104EC000014B1868704700BF3C00002070B50026F9
:104ED0000C4D0D4C641BA410A64209D100F002FF3A
:104EE00000260A4D0A4C641BA410A64205D170BDD1
:104EF00055F8043B98470136EEE755F8043B9847D0
:104F00000136F2E7E85D0008E85D0008E85D0008AA
:104F1000EC5D000803460244934200D1704703F859
:104F2000011BF9E70EB46FF0004100B59CB01DAB5A
:104F300002900690079104910848094953F8042B00
:104F40000591006802A9019300F068F80022029B15
:104F50001A701CB05DF804EB03B070473C000020F1
:104F60000802FFFF2DE9F0478E6882469E420C46FC
:104F700090461F4638D88A8912F4906F32D025683F
:104F800009690133A5EB010965694B4405EB45054A
:104F900005EBD5756D109D4238BF1D46530531D5C3
:104FA000294600F06FFB064650B90C234FF0FF3046
:104FB000CAF80030A38943F04003A381BDE8F0871D
:104FC0004A46216900F0CEFAA38923F4906343F0A6
:104FD0008003A38126614E4426603E466561A5EBB1
:104FE0000905A560BE4200D93E46324641462068CA
:104FF00000F0C6FAA36800209B1BA360236833441B
:105000002360DBE72A4600F0B1FB06460028E1D129
:105010005046216900F0CEFAC7E700002DE9F04FB5
:1050200098468B8907461B060D4614469DB00ED543
:105030000B6963B9402100F025FB2860286120B985
:105040000C233B604FF0FF30D1E040236B61002325
:10505000099320238DF8293030234FF00109CDF832
:105060000C80DFF8A4818DF82A3023469A4613F885
:10507000012B0AB1252AF9D1BAEB040B0BD05B4600
:10508000224629463846FFF76DFF013000F0AA801E
:10509000099A5A4409929AF80030002B00F0A28035
:1050A00000234FF0FF32CDE905230AF1010A0493F2
:1050B00007938DF853301A935446052214F8011BB8
:1050C000514800F041FA049AD8B9D00644BF2023D1
:1050D0008DF85330110744BF2B238DF853309AF8C5
:1050E00000302A2B15D0544600204FF00A0C079AA6
:1050F000214611F8013B303B092B4ED9B0B1079244
:1051000014E0A0EB080309FA03F31343A246049347
:10511000D2E7039B191D1B680391002BBBBF5B42A9
:1051200042F0020207930793B8BF049223782E2B14
:105130000CD163782A2B35D1039B02341A1D1B68CE
:105140000392002BB8BF4FF0FF330593DFF8BCA0EC
:1051500003225046217800F0F7F940B14023A0EB3C
:105160000A0003FA00F0049B01340343049314F88B
:10517000011B062226488DF8281000F0E5F90028CA
:1051800038D0244B1BBB039B073323F007030833A2
:105190000393099B3344099367E70C4601200CFBFA
:1051A0000232A5E700234FF00A0C1946013405939B
:1051B000204610F8012B303A092A03D9002BC5D01C
:1051C0000591C3E7044601230CFB0121F0E703AB83
:1051D00000932A463846104B04A9AFF30080421CC6
:1051E0000646D6D1AB895B063FF52CAF09981DB0BA
:1051F000BDE8F08F03AB00932A463846064B04A95E
:1052000000F07CF8EBE700BF3E5D0008445D00085D
:10521000485D000800000000654F00082DE9F047D8
:10522000164699468A680B6907469342B8BF1346EB
:10523000336091F843200C46DDF820800AB1013339
:1052400033602368990642BF3368023333602568B0
:1052500015F0060506D104F1190AE36832689B1AB5
:10526000AB4228DC94F84320131E226818BF0123A8
:1052700092062DD44946384604F14302C047013016
:1052800020D02368E56803F00603042B18BF00252F
:1052900032684FF00006A36808BFAD1A226908BF44
:1052A00025EAE5759342C4BF9B1AED181A34B5423E
:1052B0001AD1002008E00123524649463846C0472B
:1052C000013003D14FF0FF30BDE8F0870135C4E76E
:1052D0003020E11881F843005A1C94F8451022440C
:1052E000023382F84310C5E7012322464946384677
:1052F000C0470130E6D00136D9E700002DE9FF476D
:105300000F7E9146782F80460C469A460C9D01F1FF
:10531000430207D8622F0AD8002F00F0D980582FF7
:1053200000F0A48004F1420584F842703AE0A7F14D
:105330006303152BF6D801A151F823F0955300080B
:10534000A9530008255300082553000825530008D9
:1053500025530008A95300082553000825530008C9
:105360002553000825530008B7540008D9530008F6
:10537000995400082553000825530008D954000803
:1053800025530008D9530008255300082553000869
:10539000A15400082B681A1D1B682A6004F14205FD
:1053A00084F842300123A4E020682968060601F150
:1053B00004030AD50E682B60002E03DA2D237642F3
:1053C00084F843300A235E4819E00E6810F0400F5D
:1053D0002B6018BF36B2EFE72B682068191D2960D3
:1053E000010601D51E6802E04606FBD51E886F2F18
:1053F0000CBF08230A235248002184F84310656833
:10540000002DA8BF2168A560A4BF21F00401216080
:105410000EB9002D4DD01546B6FBF3F103FB116715
:10542000C75D05F8017D3746BB420E46F4D9082B0F
:105430000BD12368DE0708D5236961689942DEBF76
:10544000302305F8013C05F1FF35521B22614B4624
:1054500021464046CDF800A003AAFFF7DFFE013049
:105460004CD14FF0FF3004B0BDE8F087344881F8EC
:1054700045702968236851F8046B29601D0614D50E
:10548000DF0744BF43F0200323601EB9236823F0E5
:10549000200323601023AFE7236843F02003236039
:1054A0007823284884F84530E3E7590648BFB6B268
:1054B000E6E71546BBE72B682668181D616928607A
:1054C00035061B6801D5196002E07006FBD519800E
:1054D000002315462361BAE72B6800211A1D2A60B4
:1054E0001D686268284600F02FF808B1401B606014
:1054F00063682361002384F84330A8E72A464946BD
:1055000040462369D0470130ABD023689B0713D4B2
:10551000E068039B9842B8BF1846A4E701233246CF
:1055200049464046D04701309BD00135E368039996
:105530005B1AAB42F2DCEBE7002504F11906F5E754
:105540004F5D0008605D0008034610B5C9B2024413
:105550009342184601D1002003E0047801338C42C5
:10556000F6D110BD0A44914200F1FF3300D17047DB
:1055700010B511F8014B914203F8014FF9D110BD5C
:10558000884210B501EB020402D98442234607D8B1
:10559000431EA14208D011F8012B03F8012FF8E7B0
:1055A000014602448A4200D110BD13F8014D02F8B1
:1055B000014DF7E738B50546002940D051F8043CC5
:1055C0000C1F002BB8BFE41800F010F91C4A136838
:1055D00033B9636014602846BDE8384000F00CB968
:1055E000A34208D9206821188B4201BF19685B6863
:1055F00009182160EDE71A465B680BB1A342FAD99E
:1056000011685018A0420BD1206801445018834201
:105610001160E0D118685B68014411605360DAE7FB
:1056200002D90C232B60D6E7206821188B4201BFDA
:1056300019685B680918216063605460CBE738BD66
:10564000C401002070B50E4E0C463168054611B9F4
:1056500000F0BCF830602146284600F0B7F8431C43
:105660000AD0C41C24F00304A04207D0211A284603
:1056700000F0ACF8013001D14FF0FF34204670BD8E
:10568000C80100202DE9F041CD1C25F003050835A7
:105690000C2D38BF0C25002D074601DBA94205D98A
:1056A0000C2300263B603046BDE8F0812E4E00F012
:1056B0009DF833681C4634BB29463846FFF7C2FFC5
:1056C000431C04464DD134682646002E40D1236841
:1056D0003146384604EB030800F078F880453AD1AB
:1056E000216803356D1A25F0030508350C2D38BFE8
:1056F0000C2538462946FFF7A5FF01302BD023683B
:105700002B4423600EE02268521B1ED40B2A16D9AC
:105710006119A342256018BF5960636808BF3160F2
:1057200062514B60384604F10B0600F065F826F034
:105730000706231DF21AB6D09B1BA350B3E762687D
:10574000A3420CBF32605A60ECE723466468B2E7BC
:1057500034467668B9E70C2338463B6000F04CF8D5
:10576000A1E72560DEE700BFC40100202DE9F0417C
:10577000804614460E4621B91146BDE8F041FFF7B8
:1057800081BF2AB9FFF716FF25462846BDE8F081FC
:1057900000F038F88442074602D8B4EB500F12D814
:1057A00021464046FFF76EFF05460028EDD0BC427B
:1057B0002246314628BF3A46FFF7D4FE31464046DE
:1057C000FFF7F8FEE1E73546DFE7000038B50023D4
:1057D000054D044608462B60FCF72CF8431C02D10B
:1057E0002B6803B1236038BDCC010020014800F0D4
:1057F00011B800BFD0010020014800F00CB800BF74
:10580000D001002051F8043C181F002BBCBF0B58DE
:10581000C01870477047704700F002B800000000E1
:105820002DE9F84F9246994623F000421F46CAF1EF
:105830000003DFF884E143EA0A0342EAD3737345C5
:1058400004460D4608D8464221F00043064343EA89
:10585000D67676458C4608D952464B462046294690
:10586000FAF784FC04460D4619E009F1404606F5B6
:10587000801656EA0A0603D1BDE8F84F00F0A4B836
:10588000BE1706F0020646EAD17653EA00010AD1B5
:10589000022E67D0032E02D13BA5D5E90045204654
:1058A0002946BDE8F88F52EA0A0106D1BCF1000F83
:1058B00063DA37A5D5E90045F1E772450FD1934288
:1058C00006F1FF3607D1022E50D83C4B03EBC6063B
:1058D000D6E90045E3E7022E4CD8394BF6E773458D
:1058E000E4D09B1AB3F1747F4FEA235220DA002FE1
:1058F00001DA3C3220DB52464B4620462946FAF775
:1059000015FF00F0EBF900F05FF804460D46012E9C
:1059100015D0022E17D0002EC1D01FA3D3E900232B
:1059200020462946FAF720FC1DA3D3E9002316E000
:105930001DA5D5E90045EAE700240025E7E705F1C4
:1059400000431D46ABE714A3D3E9002320462946B4
:10595000FAF70AFC02460B4611A1D1E90001FAF759
:1059600003FC7FE70EA5D5E9004598E710A5D5E92A
:10597000004594E70024002591E70BA5D5E90045F3
:105980008DE700BFAFF30080182D4454FB2109C000
:10599000182D4454FB21F9BF075C143326A6A13C03
:1059A000182D4454FB210940182D4454FB21F93F84
:1059B000182D4454FB21E93F0000F07F785D00087A
:1059C000905D0008000000002DE9F84FB64B21F073
:1059D00000469E4204460D468B4617DDB34B9E4261
:1059E00001DC09D140B122462B4620462946FAF770
:1059F000BDFB04460D4605E0BBF1000FAC4C00F3C7
:105A00002181AC4D20462946BDE8F88FAA4B9E4225
:105A100011DCA3F1DE739E420ADC8BA3D3E90023E1
:105A2000FAF7A4FB0022A54BFAF7E6FF0028E9D11C
:105A30004FF0FF3A27E000F051F9A14B04469E4297
:105A40000D4600F3B880A3F550239E4200F39C80DE
:105A500002460B46FAF78AFB0022984BFAF784FBC2
:105A6000002206460F464FF0804320462946FAF7AB
:105A70007DFB02460B4630463946FAF757FE4FF09B
:105A8000000A04460D4622462B4620462946FAF7D0
:105A900023FD02460B4680468946FAF71DFD6CA39E
:105AA000D3E9002306460F46FAF716FD6AA3D3E9A9
:105AB0000023FAF75BFB32463B46FAF70DFD68A37D
:105AC000D3E90023FAF752FB32463B46FAF704FDCE
:105AD00065A3D3E90023FAF749FB32463B46FAF7C0
