:020000040800F2
:1000000000500020F9220008551800085B1800086D
:1000100061180008671800086D180008000000004B
:10002000000000000000000000000000731800083D
:100030007F180008000000008B18000897180008BF
:100040004123000841230008412300084123000800
:1000500041230008412300084123000841230008F0
:1000600041230008412300084123000841230008E0
:1000700041230008412300084123000841230008D0
:1000800041230008412300084123000841230008C0
:1000900041230008412300084123000841230008B0
:1000A00041230008412300084123000841230008A0
:1000B0004123000841230008412300084123000890
:1000C000412300084123000841230008A518000827
:1000D0004123000841230008412300084123000870
:1000E00041230008412300084123000800000000CC
:1000F0000000000000000000000000000000000000
:0C01000000000000000000005FF808F1A3
:1001100010B5054C237833B9044B13B10448AFF341
:1001200000800123237010BD0C020020000000009D
:100130005C82000808B5034B1BB103490348AFF3C9
:10014000008008BD00000000100200205C82000852
:10015000034613F8012B002AFBD1181A0138704707
:1001600081F0004102E000BF83F0004330B54FEA68
:1001700041044FEA430594EA050F08BF90EA020FD5
:100180001FBF54EA000C55EA020C7FEA645C7FEA68
:10019000655C00F0E2804FEA5454D4EB5555B8BF8B
:1001A0006D420CDD2C4480EA020281EA030382EAFC
:1001B000000083EA010180EA020281EA0303362D8E
:1001C00088BF30BD11F0004F4FEA01314FF4801C61
:1001D0004CEA113102D0404261EB410113F0004F73
:1001E0004FEA03334CEA133302D0524263EB43032A
:1001F00094EA050F00F0A780A4F10104D5F1200EC8
:100200000DDB02FA0EFC22FA05F2801841F1000122
:1002100003FA0EF2801843FA05F359410EE0A5F1F6
:1002200020050EF1200E012A03FA0EFC28BF4CF027
:10023000020C43FA05F3C01851EBE37101F00045DD
:1002400007D54FF0000EDCF1000C7EEB00006EEBEA
:100250000101B1F5801F1BD3B1F5001F0CD3490874
:100260005FEA30004FEA3C0C04F101044FEA4452CB
:1002700012F5800F80F09A80BCF1004F08BF5FEA52
:10028000500C50F1000041EB045141EA050130BD32
:100290005FEA4C0C404141EB0101013C28BFB1F544
:1002A000801FE9D291F0000F04BF01460020B1FA8F
:1002B00081F308BF2033A3F10B03B3F120020CDA62
:1002C0000C3208DD02F1140CC2F10C0201FA0CF040
:1002D00021FA02F10CE002F11402D8BFC2F1200CA5
:1002E00001FA02F120FA0CFCDCBF41EA0C0190405B
:1002F000E41AA2BF01EB0451294330BD6FEA0404A4
:100300001F3C1CDA0C340EDC04F11404C4F120028E
:1003100020FA04F001FA02F340EA030021FA04F3A0
:1003200045EA030130BDC4F10C04C4F1200220FAF7
:1003300002F001FA04F340EA0300294630BD21FA35
:1003400004F0294630BD94F0000F83F4801306BFFB
:1003500081F480110134013D4EE77FEA645C18BFEF
:100360007FEA655C29D094EA050F08BF90EA020F86
:1003700005D054EA000C04BF1946104630BD91EA7E
:10038000030F1EBF0021002030BD5FEA545C05D181
:100390004000494128BF41F0004130BD14F58004C0
:1003A0003CBF01F5801130BD01F0004545F0FE4134
:1003B00041F470014FF0000030BD7FEA645C1ABF69
:1003C000194610467FEA655C1CBF0B46024650EAA0
:1003D000013406BF52EA033591EA030F41F40021CC
:1003E00030BD00BF90F0000F04BF0021704730B552
:1003F0004FF4806404F132044FF000054FF0000127
:1004000050E700BF90F0000F04BF0021704730B5E7
:100410004FF4806404F1320410F0004548BF4042BC
:100420004FF000013EE700BF42004FEAE2014FEA11
:1004300031014FEA02701FBF12F07F4393F07F4FEC
:1004400081F06051704732F07F4208BF704793F0EF
:100450007F4F04BF41F40021704730B54FF4607402
:1004600001F0004521F000411CE700BF50EA010205
:1004700008BF704730B54FF000050AE050EA0102AE
:1004800008BF704730B511F0004502D5404261EB1E
:1004900041014FF4806404F132045FEA915C3FF45F
:1004A000D8AE4FF003025FEADC0C18BF03325FEAFC
:1004B000DC0C18BF033202EBDC02C2F1200300FAAD
:1004C00003FC20FA02F001FA03FE40EA0E0021FAD2
:1004D00002F11444BDE600BF70B54FF0FF0C4CF4C0
:1004E000E06C1CEA11541DBF1CEA135594EA0C0F72
:1004F00095EA0C0F00F0DEF82C4481EA030621EAAD
:100500004C5123EA4C5350EA013518BF52EA0335E7
:1005100041F4801143F4801338D0A0FB02CE4FF099
:100520000005E1FB02E506F00042E0FB03E54FF0C9
:100530000006E1FB03569CF0000F18BF4EF0010EC1
:10054000A4F1FF04B6F5007F64F5407404D25FEABD
:100550004E0E6D4146EB060642EAC62141EA555170
:100560004FEAC52040EA5E504FEACE2EB4F1FD0CB2
:1005700088BFBCF5E06F1ED8BEF1004F08BF5FEA30
:10058000500E50F1000041EB045170BD06F00046E2
:1005900046EA010140EA020081EA0301B4EB5C048F
:1005A000C2BFD4EB0C0541EA045170BD41F4801187
:1005B0004FF0000E013C00F3AB8014F1360FDEBFAC
:1005C000002001F0004170BDC4F10004203C35DA88
:1005D0000C341BDC04F11404C4F1200500FA05F30B
:1005E00020FA04F001FA05F240EA020001F00042AC
:1005F00021F0004110EBD37021FA04F642EB060122
:100600005EEA430E08BF20EAD37070BDC4F10C044B
:10061000C4F1200500FA04F320FA05F001FA04F20F
:1006200040EA020001F0004110EBD37041F10001FB
:100630005EEA430E08BF20EAD37070BDC4F1200506
:1006400000FA05F24EEA020E20FA04F301FA05F26E
:1006500043EA020321FA04F001F0004121FA04F216
:1006600020EA020000EBD3705EEA430E08BF20EAE6
:10067000D37070BD94F0000F0FD101F00046400020
:1006800041EB010111F4801F08BF013CF7D041EAA2
:10069000060195F0000F18BF704703F000465200A6
:1006A00043EB030313F4801F08BF013DF7D043EA77
:1006B0000603704794EA0C0F0CEA135518BF95EA2D
:1006C0000C0F0CD050EA410618BF52EA4306D1D1B4
:1006D00081EA030101F000414FF0000070BD50EAD3
:1006E000410606BF1046194652EA430619D094EA5D
:1006F0000C0F02D150EA013613D195EA0C0F05D147
:1007000052EA03361CBF104619460AD181EA03019A
:1007100001F0004141F0FE4141F470014FF0000052
:1007200070BD41F0FE4141F4780170BD70B54FF0ED
:10073000FF0C4CF4E06C1CEA11541DBF1CEA13556D
:1007400094EA0C0F95EA0C0F00F0A7F8A4EB05044F
:1007500081EA030E52EA03354FEA013100F0888046
:100760004FEA03334FF0805545EA131343EA12630F
:100770004FEA022245EA111545EA10654FEA0026C4
:100780000EF000419D4208BF964244F1FD0404F57D
:10079000407402D25B084FEA3202B61A65EB0305D9
:1007A0005B084FEA32024FF480104FF4002CB6EB96
:1007B000020E75EB030E22BFB61A754640EA0C0016
:1007C0005B084FEA3202B6EB020E75EB030E22BF56
:1007D000B61A754640EA5C005B084FEA3202B6EB97
:1007E000020E75EB030E22BFB61A754640EA9C0056
:1007F0005B084FEA3202B6EB020E75EB030E22BF26
:10080000B61A754640EADC0055EA060E18D04FEAE3
:10081000051545EA16754FEA06164FEAC30343EA83
:1008200052734FEAC2025FEA1C1CC0D111F4801F50
:100830000BD141EA00014FF000004FF0004CB6E749
:1008400011F4801F04BF01430020B4F1FD0C88BFE8
:10085000BCF5E06F3FF6AFAEB5EB030C04BFB6EBF3
:10086000020C5FEA500C50F1000041EB045170BDE6
:100870000EF0004E4EEA113114EB5C04C2BFD4EB13
:100880000C0541EA045170BD41F480114FF0000E97
:10089000013C90E645EA060E8DE60CEA135594EA13
:1008A0000C0F08BF95EA0C0F3FF43BAF94EA0C0F16
:1008B0000AD150EA01347FF434AF95EA0C0F7FF48B
:1008C00025AF104619462CE795EA0C0F06D152EADF
:1008D00003353FF4FDAE1046194622E750EA4106C3
:1008E00018BF52EA43067FF4C5AE50EA41047FF4D4
:1008F0000DAF52EA43057FF4EBAE12E74FF0FF3C39
:1009000006E000BF4FF0010C02E000BF4FF0010C09
:100910004DF804CD4FEA410C7FEA6C5C4FEA430C82
:1009200018BF7FEA6C5C1BD001B050EA410C0CBFD1
:1009300052EA430C91EA030F02BF90EA020F002033
:10094000704710F1000F91EA030F58BF994208BF9A
:1009500090422CBFD8176FEAE37040F00100704757
:100960004FEA410C7FEA6C5C02D150EA013C07D1AE
:100970004FEA430C7FEA6C5CD6D152EA033CD3D0F9
:100980005DF8040B704700BF8446104662468C46F3
:100990001946634600E000BF01B5FFF7B7FF002826
:1009A00048BF10F1000F01BD4DF808EDFFF7F4FF4F
:1009B0000CBF012000205DF808FB00BF4DF808EDDA
:1009C000FFF7EAFF34BF012000205DF808FB00BFFD
:1009D0004DF808EDFFF7E0FF94BF012000205DF81F
:1009E00008FB00BF4DF808EDFFF7CEFF94BF0120D4
:1009F00000205DF808FB00BF4DF808EDFFF7C4FFCD
:100A000034BF012000205DF808FB00BF4FEA410C15
:100A10007FEA6C5C02D150EA013C0AD14FEA430CF8
:100A20007FEA6C5C02D152EA033C02D14FF0000035
:100A300070474FF0010070474FEA410212F5001273
:100A400015D211D56FF47873B3EB625212D94FEA15
:100A5000C12343F0004343EA505311F0004F23FAFF
:100A600002F018BF404270474FF00000704750EA54
:100A7000013005D111F0004008BF6FF00040704711
:100A80004FF00000704700BF4A0011D212F500126B
:100A900011D20DD56FF47873B3EB62520ED44FEAD6
:100AA000C12343F0004343EA505323FA02F0704756
:100AB0004FF00000704750EA013002D14FF0FF3094
:100AC00070474FF00000704780B586B004AF786083
:100AD0006423029301230193134B00930123752296
:100AE000D021786802F012FA104B00221A700E4BD7
:100AF0001B78682B13D10D4B00221A7064230293CC
:100B000001230193094B009301236B22D0217868C4
:100B100002F002F90A2001F077FC002300E0012333
:100B200018460837BD4680BD28020020320200204A
:100B300080B586B004AF7860134B00221A7064232E
:100B4000029301230193104B009301236A22D021C9
:100B5000786802F0E1F80A2001F056FC0A4B022204
:100B60001A706423029301230193074B009301231E
:100B70003722D021786802F0CFF80A2001F044FC37
:100B800000BF0837BD4680BD3202002080B586B068
:100B900004AF7860254B00221A706423029301236E
:100BA0000193224B009301233722D021786802F071
:100BB000B3F80A2001F028FC1C4B22221A7064238F
:100BC000029301230193194B009301236A22D02140
:100BD000786802F0A1F80A2001F016FC134B0D22F0
:100BE0001A706423029301230193104B0093012395
:100BF0002422D021786802F08FF80A2001F004FC4A
:100C00000A4B00221A706423029301230193074BBD
:100C1000009301236B22D021786802F07DF80A202E
:100C200001F0F2FB00BF0837BD4680BD3202002054
:100C300080B586B004AF78601C4B18221A7064230C
:100C4000029301230193194B0093012300223C21BD
:100C5000786802F061F80A2001F0D6FB134B2022DD
:100C60001A706423029301230193104B0093012314
:100C700001223C21786802F04FF80A2001F0C4FB01
:100C80000A4B00221A706423029301230193074B3D
:100C90000093012302223C21786802F03DF80A20EB
:100CA00001F0B2FB00BF0837BD4680BD3202002014
:100CB00080B586B004AF78601C4B9E221A70642306
:100CC000029301230193194B009301232522D02184
:100CD000786802F021F80A2001F096FB134B0322FA
:100CE0001A706423029301230193104B0093012394
:100CF0002622D021786802F00FF80A2001F084FB48
:100D00000A4B86221A706423029301230193074B36
:100D1000009301232722D021786801F0FDFF0A20EB
:100D200001F072FB00BF0837BD4680BD32020020D3
:100D300080B586B004AF78606423029306230193E4
:100D4000054B009301234922D021786802F0DEF898
:100D500000BF0837BD4680BD2C0200200000000007
:100D6000B0B584B000AF7860474B1B781B021AB255
:100D7000454B5B781BB213431AB27B681A80424B17
:100D80009B781B021AB2404BDB781BB213431BB299
:100D90009BB25B429BB21AB27B689A803A4B1B793A
:100DA0001B021AB2384B5B791BB213431BB29BB2C6
:100DB0005B429BB21AB27B685A807B68B3F90230FF
:100DC0001846FFF71FFB04460D467B68B3F9003059
:100DD0001846FFF717FB02460B462046294606F049
:100DE000D7FFC7E9020124A3D3E90023D7E9020111
:100DF000FFF702FE0346002B0AD01FA3D3E900230E
:100E0000D7E90201FFF7B0F902460B46C7E9022312
:100E10004FF000024FF00003D7E90201FFF7CEFDCB
:100E20000346002B0AD014A3D3E90023D7E902011B
:100E3000FFF79CF902460B46C7E902234FF0000278
:100E4000124BD7E90201FFF747FB02460B4610465B
:100E500019460BA3D3E90023FFF768FC02460B46B3
:100E600010461946FFF710FE03469BB2184610378E
:100E7000BD46B0BDAFF30080EA2E4454FB211940BB
:100E8000EA2E4454FB2109402C02002000806640D9
:100E900080B588B000AF01F055FA00F075F800F0A9
:100EA0001DF900F0B7F800F0E3F82E48FFF70CFE4C
:100EB0002C48FFF73DFE2B48FFF7BAFE2948FFF705
:100EC00065FE2848FFF7F4FE0023FB77264A07F16A
:100ED000100392E80300186004331980234BFB6071
:100EE0006FF07F43BB60224B7B603B1D07F1080224
:100EF00007F10C0107F1100000F0E2FF1D4B3B6011
:100F000000BFF87F002341F27172022100F036F930
:100F100003461A46FB7F9A42F3D13A46F87F41F2E4
:100F20008933154901F01AF80E48FFF701FF142024
:100F300001F06AFA07F118031846FFF711FF03469C
:100F40001A460E4B1A800D4B1B881A460C490D4849
:100F500004F0A6FC3A46F87F41F28933094900F0D3
:100F6000FDFFE1E73402002094820008C0A8010FD1
:100F7000C0A80101C0A8010478820008E002002096
:100F800090820008E402002080B590B000AF07F125
:100F9000180328220021184604F01AF83B1D0022ED
:100FA0001A605A609A60DA601A610123BB614FF4DB
:100FB0008033FB6100233B620123BB6202237B631E
:100FC0004FF48033BB634FF4E013FB6307F1180366
:100FD000184602F05DFD0346002B01D000F0C8F872
:100FE0000F237B600223BB600023FB604FF4806310
:100FF0003B6100237B613B1D0221184602F0CAFFC2
:101000000346002B01D000F0B3F800BF4037BD46C7
:1010100080BD000080B500AF124B134A1A60114B1F
:10102000124A5A600F4B00229A600E4B0022DA607F
:101030000C4B4FF480421A610A4B00225A61094B53
:1010400000229A61074B0022DA61064B00221A62E5
:10105000044801F01DFD0346002B01D000F088F884
:1010600000BF80BD3402002000540040801A0600FA
:1010700080B500AF174B184A1A60164B4FF48272B6
:101080005A60144B00229A60124B0022DA60114B16
:1010900000221A610F4B00225A610E4B4FF400726E
:1010A0009A610C4B1022DA610A4B00221A62094B3A
:1010B00000225A62074B00229A62064B0A22DA6229
:1010C000044803F0EBF80346002B01D000F050F881
:1010D00000BF80BD880200200030014080B588B08C
:1010E00000AF07F1100300221A605A609A60DA60BC
:1010F0001D4B9B691C4A43F0200393611A4B9B696B
:1011000003F02003FB60FB68174B9B69164A43F012
:1011100004039361144B9B6903F00403BB60BB6839
:10112000114B9B69104A43F0080393610E4B9B6976
:1011300003F008037B607B68002210210B4801F05C
:101140008FFC10233B6101237B610123BB610223E0
:10115000FB6107F110031946044801F0FDFA00BFD6
:101160002037BD4680BD00BF00100240000801408E
:1011700080B400AF72B600BFFEE7000090B585B046
:1011800000AF0446084611461A462346FB71034643
:10119000BB710B46BB801346FB70FB79082B02D951
:1011A0004FF0FF33F2E0BB79012B05D0002B11DDAE
:1011B000023B022B0ED811E007F10C030422194662
:1011C0004FF4706000F0D8FCFB68002B05D16FF085
:1011D0000203DBE06FF00403D8E000BFFB7803F00C
:1011E0000403002B02D06FF00503CFE0FB78002B47
:1011F00025D0BB79012B02D0022B08D024E0FB784C
:1012000003F02103002B1CD16FF00503BEE0FB7837
:1012100003F02003002B06D097F90330002B02DBEC
:101220006FF00503B2E0FB7803F01003002B0AD047
:1012300097F90330002B06DB6FF00503A6E000BF33
:1012400002E000BF00E000BFFB79184600F0ACF8F8
:10125000FB799B000133DB00184697F9033023F03C
:101260000F035AB297F9063013435BB2DBB219464B
:1012700000F034FCBB88002B10D1464B1B885A1C55
:1012800091B2444A1180BB80424B1B884FF6F072EA
:10129000934203D13F4B4FF440421A80FB799B00AD
:1012A0000133DB0003F580631A46BB881B0A9BB23F
:1012B000DBB21946104600F011FCFB799B000133AC
:1012C000DB0003F5A0631A46BB88DBB21946104663
:1012D00000F004FCFB799B000133DB0003F5807315
:1012E0000121184600F0FAFB00BFFB799B00013397
:1012F000DB0003F58073184600F0A4FB0346002BC7
:10130000F3D1FB79012202FA03F31BB2DB431AB2D9
:10131000214B1B881BB213401BB29AB21E4B1A8082
:10132000FB7803F00102FB7902FA03F31AB21A4BBD
:101330001B881BB213431BB29AB2174B1A80FB795E
:10134000012202FA03F31BB2DB431AB2134B1B88D0
:101350001BB213401BB29AB2104B1A80FB79104A91
:10136000002122F81310FB790E4A0021D15400BF4E
:10137000FB799B000133DB0003F54073184600F056
:1013800061FB0346002BF3D097F90730184614375A
:10139000BD4690BD00000020020300200403002091
:1013A000080300201803002080B582B000AF034678
:1013B000FB71FB79082B02D94FF0FF3355E0FB7925
:1013C0009B000133DB0003F580731021184600F009
:1013D00085FB00BFFB799B000133DB0003F58073C5
:1013E000184600F02FFB0346002BF3D1FB799B003E
:1013F0000133DB0003F500731F21184600F06EFB7C
:10140000FB79012202FA03F31BB2DB431AB2194B38
:101410001B881BB213401BB29AB2164B1A80FB7981
:10142000012202FA03F31BB2DB431AB2124B1B88F0
:101430001BB213401BB29AB20F4B1A80FB790F4AB2
:10144000002122F81310FB790D4A0021D15400BF6E
:10145000FB799B000133DB0003F54073184600F075
:10146000F1FA0346002BF3D1012318460837BD4695
:1014700080BD00BF020300200403002008030020F9
:101480001803002080B586B000AFB9607B600346CA
:10149000FB731346BB810023FB750023BB82FB7BE0
:1014A000082B02D94FF0FF331BE1FB7B9B0001337C
:1014B000DB00184600F0C6FA034603F00F03023BB8
:1014C000022B02D96FF004030BE100BFBB89002B94
:1014D00002D16FF00D0304E17B681B783B613B692F
:1014E0001B027A680132127813443B613B691B028C
:1014F0007A680232127813443B613B691B027A68B6
:101500000332127813443B613B69002B0ED1FB7B05
:101510009B000133DB00184600F094FA034603F009
:101520000403042B02D06FF00B03DAE03B8C002B9A
:101530000ED1FB7B9B000133DB00184600F082FAE2
:10154000034603F00403042B02D06FF00A03C8E043
:10155000FB7B9B000133DB0003F54073184600F072
:1015600071FA0346FB75FB7D422B08D0FB7D222BD5
:1015700005D0FB7D322B02D06FF00603B1E0FB7B80
:101580009B000133DB0003F54063042279681846B1
:1015900000F052FBFB7B9B000133DB0003F5805323
:1015A0001A463B8C1B0A9BB2DBB21946104600F070
:1015B00095FAFB7B9B000133DB0003F588531A4649
:1015C0003B8CDBB21946104600F088FAFB7B9B008F
:1015D0000133DB0003F5F853184600F033FA0346F5
:1015E0009BB29B02BB82BA89BB8A9A4201D9BB8A51
:1015F000BB81FB7B184600F07FFB0346BB82FB7B75
:101600009B000133DB0003F54073184600F01AFA23
:101610000346002B02D16FF0030362E0334B1B88BB
:101620001A46FB7B42FA03F303F00103002B05D0BB
:10163000BA89BB8A9A4201D9002352E0BA89BB8A8F
:101640009A4200D9D5E700BFBA89FB7BB968184632
:1016500000F09DFBFB7B9B000133DB0003F58073F7
:101660002021184600F03AFA00BFFB7B9B000133B3
:10167000DB0003F58073184600F0E4F90346002B05
:10168000F3D1FB7B9B000133DB0003F500731846AD
:1016900000F0D8F9034603F01F03FB75FB7D03F050
:1016A0001003002B0CD0FB7B9B000133DB0003F508
:1016B00000731021184600F011FA00BFBB8910E03A
:1016C000FB7D03F00803002BDBD0FB7B9B00013389
:1016D000DB0003F500730821184600F0FFF96FF0F6
:1016E0000C0318461837BD4680BD00BF020300201A
:1016F00080B483B000AF0E4B9B690D4A43F00103E9
:1017000093610B4B9B6903F001037B607B68084B83
:10171000DB69074A43F08053D361054BDB6903F073
:1017200080533B603B6800BF0C37BD4680BC7047B0
:101730000010024080B588B000AF786007F1100358
:1017400000221A605A609A60DA607B681B68154A4A
:10175000934223D1144B9B69134A43F008039361CE
:10176000114B9B6903F00803FB60FB68C0233B61DE
:1017700012237B610323FB6107F1100319460B4819
:1017800000F0EAFF084BDB69074A43F40013D3611A
:10179000054BDB6903F40013BB60BB6800BF203757
:1017A000BD4680BD0054004000100240000C0140C6
:1017B00080B588B000AF786007F1100300221A608E
:1017C0005A609A60DA607B681B681F4A934237D17F
:1017D0001E4B9B691D4A43F4805393611B4B9B69CD
:1017E00003F48053FB60FB68184B9B69174A43F076
:1017F00004039361154B9B6903F00403BB60BB6852
:10180000A0233B6102237B610323FB6107F11003EB
:1018100019460F4800F0A0FF40233B6100237B6185
:101820000023BB6107F110031946094800F094FF3B
:1018300000220021232000F0E2FE232000F0FBFE26
:1018400000BF2037BD4680BD00300140001002407F
:101850000008014080B400AFFEE780B400AFFEE7AF
:1018600080B400AFFEE780B400AFFEE780B400AF05
:10187000FEE780B400AF00BFBD4680BC704780B4B7
:1018800000AF00BFBD4680BC704780B400AF00BF52
:10189000BD4680BC704780B500AF00F099FD00BF29
:1018A00080BD000080B500AF024803F06BF900BFB7
:1018B00080BD00BF8802002080B400AF012318461D
:1018C000BD4680BC704780B582B000AF786039609B
:1018D00003F054FB034616221A604FF0FF331846FC
:1018E0000837BD4680BD80B582B000AF78604FF04C
:1018F000FF317868FFF7E7FFFEE780B586B000AFFD
:10190000F860B9607A6000237B610AE0AFF3008081
:101910000146BB685A1CBA60CAB21A707B690133AF
:101920007B617A697B689A42F0DB7B6818461837DE
:10193000BD4680BD80B586B000AFF860B9607A6002
:1019400000237B6109E0BB685A1CBA601B7818460B
:10195000AFF300807B6901337B617A697B689A42CF
:10196000F1DB7B6818461837BD4680BD80B483B074
:1019700000AF78604FF0FF3318460C37BD4680BC8F
:10198000704780B483B000AF786039603B684FF433
:1019900000525A60002318460C37BD4680BC704781
:1019A00080B483B000AF7860012318460C37BD4681
:1019B00080BC704780B485B000AFF860B9607A60D1
:1019C000002318461437BD4680BC704780B586B0EA
:1019D00000AF7860144A154BD31A7B617B693B6179
:1019E000134B1B68002B02D1114B124A1A60104B8B
:1019F0001A687B6813443A699A4207D203F0BEFA28
:101A000003460C221A604FF0FF3309E0084B1B68B5
:101A1000FB60074B1A687B681344054A1360FB6838
:101A200018461837BD4680BD005000200004000055
:101A3000200300204003002080B400AF00BFBD465B
:101A400080BC704780B584B000AF7860224BDB6803
:101A50009847214B5B6998471F4B5B6A002B03D06B
:101A60001D4B9B6A002B14D11B4B1B6A7A68120C0E
:101A7000D2B210469847184B1B6A7A68120AD2B243
:101A800010469847144B1B6A7A68D2B210469847A2
:101A900011E07B681B0CDBB23B737B681B0ADBB27B
:101AA0007B737B68DBB2BB730B4B9B6A07F10C0249
:101AB000032110469847084BDB6998470346FB73A0
:101AC000054B9B699847044B1B699847FB7B18465D
:101AD0001037BD4680BD00BF0800002080B584B02F
:101AE00000AF78600B46FB70224BDB689847214BB8
:101AF0005B6998477B6843F004037B601D4B9B6ADE
:101B0000002B19D11B4B1B6A7A68120CD2B21046FB
:101B10009847184B1B6A7A68120AD2B21046984747
:101B2000144B1B6A7A68D2B210469847114B1B6A55
:101B3000FA781046984713E07B681B0CDBB23B73C6
:101B40007B681B0ADBB27B737B68DBB2BB73FB7801
:101B5000FB73084B9B6A07F10C020421104698475F
:101B6000044B9B699847034B1B69984700BF10378C
:101B7000BD4680BD0800002090B587B000AFF8607A
:101B8000B9601346FB802B4BDB689847294B5B6998
:101B90009847284B5B6A002B03D0264B9B6A002B8F
:101BA00026D1244B1B6AFA68120CD2B21046984711
:101BB000204B1B6AFA68120AD2B2104698471D4B96
:101BC0001B6AFA68D2B2104698470023FB820AE0EB
:101BD000184BDB69FA8AB9688C189847034623705A
:101BE000FB8A0133FB82FA8AFB889A42F0D317E022
:101BF000FB681B0CDBB23B74FB681B0ADBB27B741B
:101C0000FB68DBB2BB740B4B9B6A07F1100203212C
:101C100010469847074B5B6AFA881146B8689847A0
:101C2000044B9B699847034B1B69984700BF1C37BF
:101C3000BD4690BD0800002080B586B000AFF860BA
:101C4000B9601346FB802B4BDB689847294B5B69D7
:101C50009847FB6843F00403FB60264B9B6A002B0C
:101C600026D1244B1B6AFA68120CD2B21046984750
:101C7000204B1B6AFA68120AD2B2104698471D4BD5
:101C80001B6AFA68D2B2104698470023FB820AE02A
:101C9000184B1B6AFA8AB9680A44127810469847AA
:101CA000FB8A0133FB82FA8AFB889A42F0D317E061
:101CB000FB681B0CDBB23B74FB681B0ADBB27B745A
:101CC000FB68DBB2BB740B4B9B6A07F1100203216C
:101CD00010469847074B9B6AFA881146B8689847A0
:101CE000044B9B699847034B1B69984700BF183703
:101CF000BD4680BD0800002090B585B000AF03460A
:101D0000FB710023FB810023BB81FB799B00013326
:101D1000DB0003F500531846FFF794FE0346BB8132
:101D2000BB891B029CB2FB799B000133DB0003F5EE
:101D300004531846FFF786FE03469BB22344BB813B
:101D4000BB89002B1AD0FB799B000133DB0003F524
:101D500000531846FFF776FE0346FB81FB891B0202
:101D60009CB2FB799B000133DB0003F5045318465A
:101D7000FFF768FE03469BB22344FB81FA89BB89C7
:101D80009A42C2D1FB8918461437BD4690BD90B522
:101D900085B000AF03463960FB711346BB8000235A
:101DA000FB810023BB60BB88002B48D0FB799B00E4
:101DB0000133DB0003F510531846FFF743FE0346DB
:101DC0009BB21B029CB2FB799B000133DB0003F545
:101DD00014531846FFF736FE03469BB22344FB819B
:101DE000FB891B02FA7992000232D2001344BB60D5
:101DF000BB881A463968B868FFF71EFFFA89BB88A6
:101E00001344FB81FB799B000133DB0003F5105386
:101E10001A46FB891B0A9BB2DBB219461046FFF734
:101E20005DFEFB799B000133DB0003F514531A467A
:101E3000FB89DBB219461046FFF750FE00E000BFF9
:101E40001437BD4690BD000080B500AF00221021C0
:101E5000024800F005FE00BF80BD00BF0008014041
:101E600080B500AF01221021024800F0F9FD00BF4B
:101E700080BD00BF0008014080B582B000AFF91DF1
:101E80004FF0FF330122044802F0C8FBFB791846EB
:101E90000837BD4680BD00BF8802002080B582B0F3
:101EA00000AF0346FB71F91D4FF0FF3301220348D9
:101EB00002F078FA00BF0837BD4680BD88020020D6
:101EC00080B58CB000AFF860B9607A603B601E4AA4
:101ED00007F1280392E8030083E803001B491C482C
:101EE00000F0A2F81B491C4800F0C2F807F12802D4
:101EF00007F128031146184600F032F907F11003E4
:101F000000221A605A609A60DA601A61C3F81320DE
:101F1000FA6807F110031068186092889A80BB680D
:101F20001B68C7F816307B681B68C7F81A303B6817
:101F30001B68C7F81E3007F11003184600F09CF923
:101F400000BF3037BD4680BD9C820008611E00087E
:101F5000491E00089D1E0008791E000890B587B034
:101F600002AFB9607A601A460346FB731346BB8121
:101F700000BFB868FEF7ECF803469AB2F87BBB895D
:101F800000937B68B968FFF77DFA0446B868FEF7EE
:101F9000DFF803469C42ECD100BF00BF1437BD46BA
:101FA00090BD80B400AF00BFBD4680BC704780B418
:101FB00000AF00BFBD4680BC704780B400AF00BF1B
:101FC000BD4680BC704780B400AF00BFBD4680BC3A
:101FD000704780B483B000AF78607B681B78DBB259
:101FE00018460C37BD4680BC704780B483B000AF44
:101FF00078600B46FB707B68FA781A7000BF0C376C
:10200000BD4680BC704780B400AF00231846BD4673
:1020100080BC704780B483B000AF0346FB7100BF43
:102020000C37BD4680BC704780B483B000AF786089
:1020300039607B68002B02D03B68002B06D1094B2E
:10204000094A5A61074B094A9A6106E0054A7B68CA
:102050005361044A3B68936100BF00BF0C37BD4623
:1020600080BC704708000020BB1F0008C71F000885
:1020700080B483B000AF7860396000BF0F4B1B881D
:1020800003F40073002BF9D07B68002B02D03B686F
:10209000002B06D1094B0A4ADA61084B094A1A6239
:1020A00006E0064A7B68D361044A3B68136200BFBE
:1020B00000BF0C37BD4680BC704700BF0800002041
:1020C000072000081520000880B586B000AF3B1D32
:1020D000062219464FF41060FFF74EFD07F1140376
:1020E000042219464FF48070FFF746FD07F11003F4
:1020F000042219464FF4A060FFF73EFD07F10C03E0
:10210000042219464FF47060FFF736FD802100204D
:10211000FFF7E4FC0020FFF795FC3B1D0622194663
:102120004FF41060FFF788FD07F1140304221946ED
:102130004FF48070FFF780FD07F110030422194669
:102140004FF4A060FFF778FD07F10C030422194655
:102150004FF47060FFF770FD00BF1837BD4680BDBB
:1021600080B584B000AF786039600023BB73FFF79F
:10217000ABFF7B68002B3BD00023BB730023FB73BA
:1021800015E097F90F307A6813441A78BB7B134433
:10219000DBB2BB7397F90E30102B02DD4FF0FF332B
:1021A00066E097F90F30DBB20133DBB2FB7397F9CE
:1021B0000F30072BE5DD0023FB7315E097F90F3097
:1021C0009B000133DB0003F5F853184697F90F30F5
:1021D0007A6813441B781946FFF780FC97F90F3093
:1021E000DBB20133DBB2FB7397F90F30072BE5DD70
:1021F0003B68002B3BD00023BB730023FB7315E02F
:1022000097F90F303A6813441A78BB7B1344DBB25A
:10221000BB7397F90E30102B02DD4FF0FF3327E030
:1022200097F90F30DBB20133DBB2FB7397F90F3054
:10223000072BE5DD0023FB7315E097F90F309B00BA
:102240000133DB0003F5F053184697F90F303A6875
:1022500013441B781946FFF741FC97F90F30DBB2A6
:102260000133DBB2FB7397F90F30072BE5DD002359
:1022700018461037BD4680BD80B582B000AF78608B
:102280007B68062219464FF41060FFF7D5FC7B6887
:102290000E33042219464FF48070FFF7CDFC7B68A3
:1022A0000A33042219464FF4A060FFF7C5FC7B688F
:1022B0000633042219464FF47060FFF7BDFC7B68BB
:1022C0009A7C0B4B1A707B68DA7C094B5A707B68DE
:1022D0001A7D074B9A707B685A7D054BDA707B68D4
:1022E0009A7D044B1A7000BF0837BD4680BD00BF01
:1022F00024030020280300200C480D490D4A002328
:1023000002E0D458C4500433C4188C42F9D30A4AAA
:102310000A4C002301E013600432A242FBD3FFF712
:102320008BFB02F031FEFEF7B3FD7047000000208A
:102330000C020020208700080C020020400300202F
:10234000FEE7000080B500AF084B1B68074A43F06A
:1023500010031360032000F047F90F2000F008F885
:10236000FFF7C6F90023184680BD00BF00200240D9
:1023700080B582B000AF7860124B1A68124B1B78A0
:1023800019464FF47A73B3FBF1F3B2FBF3F318463B
:1023900000F05FF90346002B01D001230EE07B68BB
:1023A0000F2B0AD8002279684FF0FF3000F027F990
:1023B000064A7B681360002300E0012318460837B3
:1023C000BD4680BD040000203800002034000020FD
:1023D00080B400AF054B1B781A46054B1B681344AD
:1023E000034A136000BFBD4680BC70473800002020
:1023F0002C03002080B400AF024B1B681846BD467A
:1024000080BC70472C03002080B584B000AF78609A
:10241000FFF7F0FFB8607B68FB60FB68B3F1FF3F3C
:1024200005D00A4B1B781A46FB681344FB6000BFBB
:10243000FFF7E0FF0246BB68D31AFA689A42F7D862
:1024400000BF00BF1037BD4680BD00BF3800002070
:1024500080B485B000AF78607B6803F00703FB6051
:102460000C4BDB68BB60BA684FF6FF031340BB60E0
:10247000FB681A02BB68134343F0BF6343F40033A5
:10248000BB60044ABB68D36000BF1437BD4680BC44
:10249000704700BF00ED00E080B400AF044BDB6884
:1024A0001B0A03F007031846BD4680BC704700BFF7
:1024B00000ED00E080B483B000AF0346FB7197F9F4
:1024C0000730002B0BDBFB7903F01F02064997F95D
:1024D00007305B09012000FA02F241F8232000BF17
:1024E0000C37BD4680BC704700E100E080B483B08B
:1024F00000AF03463960FB7197F90730002B0ADB08
:102500003B68DAB20C4997F907301201D2B20B449A
:1025100083F800230AE03B68DAB20849FB7903F04C
:102520000F03043B1201D2B20B441A7600BF0C37E2
:10253000BD4680BC704700BF00E100E000ED00E058
:1025400080B489B000AFF860B9607A60FB6803F0CE
:102550000703FB61FB69C3F10703042B28BF0423B6
:10256000BB61FB690433062B02D9FB69033B00E026
:1025700000237B614FF0FF32BB6902FA03F3DA43B9
:10258000BB681A407B699A404FF0FF317B6901FAC2
:1025900003F3D9437B680B40134318462437BD46E9
:1025A00080BC704780B582B000AF78607B68013B2B
:1025B000B3F1807F01D301230FE00A4A7B68013B1E
:1025C00053600F214FF0FF30FFF790FF054B0022C3
:1025D0009A60044B07221A60002318460837BD464C
:1025E00080BD00BF10E000E080B582B000AF786031
:1025F0007868FFF72DFF00BF0837BD4680BD80B566
:1026000086B000AF0346B9607A60FB7300237B613C
:10261000FFF742FF78617A68B9687869FFF790FF41
:10262000024697F90F3011461846FFF75FFF00BFCB
:102630001837BD4680BD80B582B000AF0346FB7140
:1026400097F907301846FFF735FF00BF0837BD463A
:1026500080BD80B582B000AF78607868FFF7A2FFD8
:10266000034618460837BD4680BD000080B584B0DB
:1026700000AF78600023FB737B6893F82130022B56
:1026800005D07B6804229A630123FB7351E07B68C9
:102690001B681A687B681B6822F00E021A607B6850
:1026A0001B681A687B681B6822F001021A607B684D
:1026B0001B68224A934229D07B681B68204A9342B8
:1026C00022D07B681B681F4A93421AD07B681B6824
:1026D0001D4A934212D07B681B681C4A93420AD061
:1026E0007B681B681A4A934202D14FF480130EE0B4
:1026F0004FF080730BE04FF4803308E04FF48053C9
:1027000005E04FF4807302E0102300E00123114A3A
:1027100053607B68012283F821207B68002283F8C4
:1027200020207B685B6B002B03D07B685B6B786839
:102730009847FB7B18461037BD4680BD0800024015
:102740001C00024030000240440002405800024099
:102750006C0002400000024080B48BB000AF786093
:10276000396000237B6200233B6269E101227B6ABE
:1027700002FA03F3FB613B681B68FA691340BB6113
:10278000BA69FB699A4240F058813B685B689A4A93
:1027900093425ED0984A934275D8984A934258D053
:1027A000964A93426FD8964A934252D0944A9342A3
:1027B00069D8944A93424CD0924A934263D8924A41
:1027C000934246D0904A93425DD8122B2AD8122BBE
:1027D00059D801A252F823F0532800082D280008E8
:1027E0003F2800088128000887280008872800085B
:1027F00087280008872800088728000887280008FD
:1028000087280008872800088728000887280008EC
:10281000872800088728000887280008352800082E
:1028200049280008794A934213D02CE03B68DB68C2
:102830003B6229E03B68DB6804333B6224E03B6891
:10284000DB6808333B621FE03B68DB680C333B62AC
:102850001AE03B689B68002B02D104233B6213E023
:102860003B689B68012B05D108233B627B68FA69B2
:102870001A6109E008233B627B68FA695A6103E048
:1028800000233B6200E000BFBB69FF2B01D87B68DF
:1028900001E07B6804337B61BB69FF2B02D87B6A54
:1028A0009B0002E07B6A083B9B003B617B691A68E6
:1028B0000F213B6901FA03F3DB431A40396A3B6994
:1028C00001FA03F31A437B691A603B685B6803F003
:1028D0008053002B00F0B1804D4B9B694C4A43F074
:1028E000010393614A4B9B6903F00103BB60BB6822
:1028F000484A7B6A9B08023352F82330FB607B6AAC
:1029000003F003039B000F2202FA03F3DB43FA6890
:102910001340FB607B68404A934213D07B683F4A78
:1029200093420DD07B683E4A934207D07B683D4A74
:10293000934201D1032306E0042304E0022302E0D2
:10294000012300E000237A6A02F003029200934020
:10295000FA681343FB602F497B6A9B080233FA68CD
:1029600041F823203B685B6803F48033002B06D0DA
:102970002D4B1A682C49BB6913430B6006E02A4BA8
:102980001A68BB69DB43284913400B603B685B68EE
:1029900003F40033002B06D0234B5A682249BB694D
:1029A00013434B6006E0204B5A68BB69DB431E496A
:1029B00013404B603B685B6803F48013002B06D028
:1029C000194B9A681849BB6913438B6006E0164B94
:1029D0009A68BB69DB43144913408B603B685B68B2
:1029E00003F40013002B21D00F4BDA680E49BB69AA
:1029F0001343CB6021E000BF000032100000311013
:102A00000000221000002110000012100000111020
:102A1000001002400000014000080140000C01408D
:102A20000010014000140140000401400B4BDA6823
:102A3000BB69DB4309491340CB607B6A01337B628E
:102A40003B681A687B6A22FA03F3002B7FF48EAE90
:102A500000BF00BF2C37BD4680BC7047000401405A
:102A600080B483B000AF78600B467B8013467B70E8
:102A70007B78002B03D07A887B681A6103E07B881F
:102A80001A047B681A6100BF0C37BD4680BC7047D2
:102A900080B584B000AF78607B68002B01D1012342
:102AA0002BE17B6893F83D30DBB2002B06D17B68CD
:102AB000002283F83C207868FEF73CFE7B682422E5
:102AC00083F83D207B681B681A687B681B6822F0CE
:102AD00001021A607B681B681A687B681B6842F4F5
:102AE00000421A607B681B681A687B681B6822F4C6
:102AF00000421A6001F0A0FBF8607B685B68814AC5
:102B0000934207D8FB68804A934294BF0123002375
:102B1000DBB206E0FB687D4A934294BF01230023A9
:102B2000DBB2002B01D00123E7E0FB68784AA2FB6F
:102B300003239B0CBB607B681B685B6823F03F0131
:102B40007B681B68BA680A435A607B681B681B6A0B
:102B500023F03F017B685B686A4A934202D8BB68F6
:102B6000013309E0BB684FF4967202FB03F3694A34
:102B7000A2FB03239B0901337A6812680B4313629B
:102B80007B681B68DB6923F44F4222F0FF027B68FD
:102B90005B685C498B4219D8FB68591E7B685B688F
:102BA0005B00B1FBF3F3591C40F6FC730B40002BA8
:102BB0000AD0FB68591E7B685B685B00B1FBF3F3CE
:102BC0000133C3F30B0351E004234FE07B689B68A0
:102BD000002B11D1FB68581E7B6859680B465B00BF
:102BE0000B44B0FBF3F30133C3F30B03002B0CBF17
:102BF00001230023DBB212E0FB68581E7B68596892
:102C00000B469B000B4499000B44B0FBF3F30133DC
:102C1000C3F30B03002B0CBF01230023DBB2002BFB
:102C200001D0012322E07B689B68002B0ED1FB685A
:102C3000581E7B6859680B465B000B44B0FBF3F3EE
:102C40000133C3F30B0343F400430FE0FB68581E4A
:102C50007B6859680B469B000B4499000B44B0FB02
:102C6000F3F30133C3F30B0343F44043796809687A
:102C70001343CB617B681B681B6823F0C0017B6832
:102C8000DA697B681B6A1A437B681B680A431A600F
:102C90007B681B689B6823F4034323F0FF037A6877
:102CA00011697A68D26811437A6812680B4393609D
:102CB0007B681B68DB6823F0FF017B685A697B68CF
:102CC0009B691A437B681B680A43DA607B681B6850
:102CD0001A687B681B6842F001021A607B68002258
:102CE0001A647B68202283F83D207B6800221A63E7
:102CF0007B68002283F83E20002318461037BD462B
:102D000080BD00BFA08601007F841E00FF083D003B
:102D100083DE1B43D34D621080B588B002AFF860EC
:102D2000084611461A4603467B810B463B811346F3
:102D3000FB80FFF75FFB7861FB6893F83D30DBB207
:102D4000202B40F0D9807B690093192301226D4923
:102D5000F86800F0C1FC0346002B01D00223CCE050
:102D6000FB6893F83C30012B01D10223C5E0FB68DE
:102D7000012283F83C20FB681B681B6803F00103F9
:102D8000012B07D0FB681B681A68FB681B6842F0C0
:102D900001021A60FB681B681A68FB681B6822F452
:102DA00000621A60FB68212283F83D20FB68402204
:102DB00083F83E20FB6800221A64FB683A6A5A6274
:102DC000FB68BA8C5A85FB685B8D9AB2FB681A85E2
:102DD000FB684D4ADA62F8883A8979897B69019300
:102DE000BB6A00930346F86800F0F8FA0346002B2C
:102DF00052D0012381E07A69B96AF86800F042FD97
:102E00000346002B0DD0FB681B6C042B07D1FB681D
:102E10001B681A68FB681B6842F400721A60012381
:102E20006BE0FB685B6A1A78FB681B681A61FB68D9
:102E30005B6A5A1CFB685A62FB681B8D013B9AB2A5
:102E4000FB681A85FB685B8D9BB2013B9AB2FB68FD
:102E50005A85FB681B685B6903F00403042B1BD1D4
:102E6000FB681B8D002B17D0FB685B6A1A78FB6828
:102E70001B681A61FB685B6A5A1CFB685A62FB6834
:102E80001B8D013B9AB2FB681A85FB685B8D9BB278
:102E9000013B9AB2FB685A85FB681B8D002BAAD1B7
:102EA0007A69B96AF86800F02EFD0346002B0DD050
:102EB000FB681B6C042B07D1FB681B681A68FB6856
:102EC0001B6842F400721A60012316E0FB681B685D
:102ED0001A68FB681B6842F400721A60FB682022C3
:102EE00083F83D20FB68002283F83E20FB68002227
:102EF00083F83C20002300E0022318461837BD4623
:102F000080BD00BF020010000000FFFF80B58CB044
:102F100002AFF860084611461A4603467B810B460D
:102F20003B811346FB8000233B62FFF763FA786224
:102F3000FB6893F83D30DBB2202B40F044827B6A83
:102F40000093192301228249F86800F0C5FB03466B
:102F5000002B01D0022337E2FB6893F83C30012BB1
:102F600001D1022330E2FB68012283F83C20FB6898
:102F70001B681B6803F00103012B07D0FB681B686B
:102F80001A68FB681B6842F001021A60FB681B6844
:102F90001A68FB681B6822F400621A60FB68222230
:102FA00083F83D20FB68402283F83E20FB68002226
:102FB0001A64FB683A6B5A62FB68BA8E5A85FB68E2
:102FC0005B8D9AB2FB681A85FB68624ADA62F88800
:102FD0003A8979897B6A0193BB6B00930346F86851
:102FE00000F092FA0346002B01D00123ECE1FB68CC
:102FF0001B8D002B13D10023FB61FB681B685B69F1
:10300000FB61FB681B689B69FB61FB69FB681B68D4
:103010001A68FB681B6842F400721A60C0E1FB6822
:103020001B8D012B1ED1FB681B681A68FB681B688F
:1030300022F480621A6072B600BF0023BB61FB6895
:103040001B685B69BB61FB681B689B69BB61BB69F3
:10305000FB681B681A68FB681B6842F400721A6000
:1030600062B635E0FB681B8D022B1ED1FB681B6826
:103070001A68FB681B6842F400621A6072B600BFEF
:1030800000237B61FB681B685B697B61FB681B68D5
:103090009B697B617B69FB681B681A68FB681B681E
:1030A00022F480621A6062B612E0FB681B681A683C
:1030B000FB681B6842F480621A6000233B61FB6876
:1030C0001B685B693B61FB681B689B693B613B69F3
:1030D00066E1FB681B8D032B00F21F81FB681B8DD3
:1030E000012B23D17A6AB96BF86800F04DFC0346D6
:1030F000002B01D0012367E1FB681B681A69FB689C
:103100005B6AD2B21A70FB685B6A5A1CFB685A622F
:10311000FB681B8D013B9AB2FB681A85FB685B8DCF
:103120009BB2013B9AB2FB685A8539E1FB681B8D63
:10313000022B52D17B6A0093BB6B00220649F868D0
:1031400000F0CAFA0346002B08D001233CE100BF7F
:10315000020010000000FFFF0400010072B600BF73
:10316000FB681B681A68FB681B6842F400721A60EF
:10317000FB681B681A69FB685B6AD2B21A70FB684D
:103180005B6A5A1CFB685A62FB681B8D013B9AB252
:10319000FB681A85FB685B8D9BB2013B9AB2FB68AA
:1031A0005A8562B600BFFB681B681A69FB685B6AD8
:1031B000D2B21A70FB685B6A5A1CFB685A62FB68E1
:1031C0001B8D013B9AB2FB681A85FB685B8D9BB235
:1031D000013B9AB2FB685A85E2E07B6A0093BB6BC5
:1031E00000227B49F86800F077FA0346002B01D0F3
:1031F0000123E9E0FB681B681A68FB681B6822F47E
:1032000080621A6072B600BFFB681B681A69FB68AF
:103210005B6AD2B21A70FB685B6A5A1CFB685A621E
:10322000FB681B8D013B9AB2FB681A85FB685B8DBE
:103230009BB2013B9AB2FB685A85664B1B68DB0860
:10324000654AA2FB03231A0A13469B001344DA00C3
:10325000D31A3B623B6A013B3B623B6A002B18D1AD
:10326000FB6800221A63FB68202283F83D20FB687C
:10327000002283F83E20FB681B6C43F02002FB68B1
:103280001A6462B600BFFB68002283F83C20012369
:103290009AE0FB681B685B6903F00403042BD9D137
:1032A000FB681B681A68FB681B6842F400721A60AE
:1032B000FB681B681A69FB685B6AD2B21A70FB680C
:1032C0005B6A5A1CFB685A62FB681B8D013B9AB211
:1032D000FB681A85FB685B8D9BB2013B9AB2FB6869
:1032E0005A8562B600BFFB681B681A69FB685B6A97
:1032F000D2B21A70FB685B6A5A1CFB685A62FB68A0
:103300001B8D013B9AB2FB681A85FB685B8D9BB2F3
:10331000013B9AB2FB685A8542E07A6AB96BF86859
:1033200000F032FB0346002B01D001234CE0FB6888
:103330001B681A69FB685B6AD2B21A70FB685B6A29
:103340005A1CFB685A62FB681B8D013B9AB2FB68F2
:103350001A85FB685B8D9BB2013B9AB2FB685A856C
:10336000FB681B685B6903F00403042B18D1FB683E
:103370001B681A69FB685B6AD2B21A70FB685B6AE9
:103380005A1CFB685A62FB681B8D013B9AB2FB68B2
:103390001A85FB685B8D9BB2013B9AB2FB685A852C
:1033A000FB681B8D002B7FF494AEFB68202283F812
:1033B0003D20FB68002283F83E20FB68002283F852
:1033C0003C20002300E0022318462837BD4680BD7C
:1033D000040001000400002089B5F81480B588B00D
:1033E00002AFF860084611461A4603467B810B4639
:1033F0003B811346FB80FB681B681A68FB681B68EF
:1034000042F480721A607B6A00933B6A00224FF09C
:103410000111F86800F060F90346002B0DD0FB683D
:103420001B681B6803F48073B3F5807F03D1FB68CE
:103430004FF400721A6403235FE07B89DBB21A4603
:10344000FB681B6802F0FE021A617B6A3A6A2D492A
:10345000F86800F098F90346002B01D001234CE0F6
:1034600000237B61FB681B685B697B61FB681B68F1
:103470009B697B617B697A6A396AF86800F002FAB5
:103480000346002B0DD0FB681B6C042B07D1FB6897
:103490001B681A68FB681B6842F400721A600123FB
:1034A0002BE0FB88012B05D13B89DAB2FB681B6856
:1034B0001A6121E03B891B0A9BB2DAB2FB681B68E8
:1034C0001A617A6A396AF86800F0DCF90346002B61
:1034D0000DD0FB681B6C042B07D1FB681B681A68B6
:1034E000FB681B6842F400721A60012305E03B8907
:1034F000DAB2FB681B681A61002318461837BD460C
:1035000080BD00BF0200010080B588B002AFF86046
:10351000084611461A4603467B810B463B811346FB
:10352000FB80FB681B681A68FB681B6842F48062BA
:103530001A60FB681B681A68FB681B6842F480729B
:103540001A607B6A00933B6A00224FF00111F86811
:1035500000F0C2F80346002B0DD0FB681B681B6807
:1035600003F48073B3F5807F03D1FB684FF40072DE
:103570001A640323AAE07B89DBB21A46FB681B6846
:1035800002F0FE021A617B6A3A6A5249F86800F05A
:10359000FAF80346002B01D0012397E000237B615A
:1035A000FB681B685B697B61FB681B689B697B61CF
:1035B0007B697A6A396AF86800F064F90346002B7F
:1035C0000DD0FB681B6C042B07D1FB681B681A68C5
:1035D000FB681B6842F400721A60012376E0FB88E6
:1035E000012B05D13B89DAB2FB681B681A6121E027
:1035F0003B891B0A9BB2DAB2FB681B681A617A6AC4
:10360000396AF86800F03EF90346002B0DD0FB68DC
:103610001B6C042B07D1FB681B681A68FB681B68CE
:1036200042F400721A60012350E03B89DAB2FB6871
:103630001B681A617A6A396AF86800F023F9034650
:10364000002B0DD0FB681B6C042B07D1FB681B689B
:103650001A68FB681B6842F400721A60012335E0A7
:10366000FB681B681A68FB681B6842F480721A606A
:103670007B6A00933B6A00224FF00111F86800F06A
:103680002BF80346002B0DD0FB681B681B6803F466
:103690008073B3F5807F03D1FB684FF400721A6426
:1036A000032313E07B89DBB243F00103DAB2FB684A
:1036B0001B681A617B6A3A6A0649F86800F063F889
:1036C0000346002B01D0012300E0002318461837E1
:1036D000BD4680BD0200010080B584B000AFF86037
:1036E000B9603B601346FB7125E03B68B3F1FF3FD7
:1036F00021D0FEF77FFE0246BB69D31A3A689A4290
:1037000002D33B68002B16D1FB6800221A63FB68CA
:10371000202283F83D20FB68002283F83E20FB68CE
:103720001B6C43F02002FB681A64FB68002283F8DC
:103730003C20012323E0BB681B0CDBB2012B0DD125
:10374000FB681B685B69DA43BB6813409BB2002BC4
:103750000CBF01230023DBB21A460CE0FB681B6898
:103760009B69DA43BB6813409BB2002B0CBF01235B
:103770000023DBB21A46FB799A42B6D000231846E2
:103780001037BD4680BD80B584B000AFF860B96029
:103790007A603B6051E0FB681B685B6903F48063FF
:1037A000B3F5806F23D1FB681B681A68FB681B6840
:1037B00042F400721A60FB681B686FF480625A6101
:1037C000FB6800221A63FB68202283F83D20FB6817
:1037D000002283F83E20FB681B6C43F00402FB6868
:1037E0001A64FB68002283F83C20012346E07B68D2
:1037F000B3F1FF3F21D0FEF7FDFD02463B68D31A2F
:103800007A689A4202D37B68002B16D1FB680022AB
:103810001A63FB68202283F83D20FB68002283F8AE
:103820003E20FB681B6C43F02002FB681A64FB68B7
:10383000002283F83C20012320E0BB681B0CDBB294
:10384000012B0CD1FB681B685B69DA43BB68134032
:103850009BB2002B14BF01230023DBB20BE0FB68FB
:103860001B689B69DA43BB6813409BB2002B14BFF3
:1038700001230023DBB2002B8DD100231846103723
:10388000BD4680BD80B584B000AFF860B9607A6095
:103890002DE0F86800F0CEF80346002B01D001239C
:1038A0002DE0BB68B3F1FF3F21D0FEF7A3FD024638
:1038B0007B68D31ABA689A4202D3BB68002B16D130
:1038C000FB6800221A63FB68202283F83D20FB6816
:1038D000002283F83E20FB681B6C43F02002FB684B
:1038E0001A64FB68002283F83C20012307E0FB6890
:1038F0001B685B6903F08003802BCAD10023184644
:103900001037BD4680BD80B584B000AFF860B960A7
:103910007A602DE0F86800F08DF80346002B01D0A6
:1039200001232DE0BB68B3F1FF3F21D0FEF762FD1C
:1039300002467B68D31ABA689A4202D3BB68002B4E
:1039400016D1FB6800221A63FB68202283F83D2011
:10395000FB68002283F83E20FB681B6C43F02002CA
:10396000FB681A64FB68002283F83C20012307E00F
:10397000FB681B685B6903F00403042BCAD10023B6
:1039800018461037BD4680BD80B584B000AFF860E2
:10399000B9607A6042E0FB681B685B6903F0100362
:1039A000102B19D1FB681B686FF010025A61FB687D
:1039B00000221A63FB68202283F83D20FB68002266
:1039C00083F83E20FB681A6CFB681A64FB680022CF
:1039D00083F83C20012329E0FEF70CFD02467B68BA
:1039E000D31ABA689A4202D3BB68002B16D1FB687F
:1039F00000221A63FB68202283F83D20FB68002226
:103A000083F83E20FB681B6C43F02002FB681A64BD
:103A1000FB68002283F83C20012307E0FB681B6859
:103A20005B6903F04003402BB5D1002318461037E3
:103A3000BD4680BD80B483B000AF78607B681B68F2
:103A40005B6903F48063B3F5806F1BD17B681B68EF
:103A50006FF480625A617B6800221A637B682022BF
:103A600083F83D207B68002283F83E207B681B6C36
:103A700043F004027B681A647B68002283F83C20D0
:103A8000012300E0002318460C37BD4680BC704778
:103A900080B586B000AF78607B68002B01D1012330
:103AA00072E27B681B6803F00103002B00F0878043
:103AB000924B5B6803F00C03042B0CD08F4B5B68BC
:103AC00003F00C03082B12D18C4B5B6803F480339A
:103AD000B3F5803F0BD1894B1B6803F40033002BF7
:103AE0006CD07B685B68002B68D101234CE27B685B
:103AF0005B68B3F5803F06D1804B1B687F4A43F477
:103B0000803313602EE07B685B68002B0CD17B4B0D
:103B10001B687A4A23F480331360784B1B68774A1A
:103B200023F4802313601DE07B685B68B3F5A02F4E
:103B30000CD1724B1B68714A43F4802313606F4BA6
:103B40001B686E4A43F4803313600BE06B4B1B68B9
:103B50006A4A23F480331360684B1B68674A23F476
:103B6000802313607B685B68002B13D0FEF742FC58
:103B7000386108E0FEF73EFC02463B69D31A642B2D
:103B800001D9032300E25D4B1B6803F40033002BD3
:103B9000F0D014E0FEF72EFC386108E0FEF72AFCB6
:103BA00002463B69D31A642B01D90323ECE1534B42
:103BB0001B6803F40033002BF0D100E000BF7B68EA
:103BC0001B6803F00203002B63D04C4B5B6803F0CF
:103BD0000C03002B0BD0494B5B6803F00C03082B44
:103BE0001CD1464B5B6803F48033002B16D1434B4A
:103BF0001B6803F00203002B05D07B681B69012BB7
:103C000001D00123C0E13D4B1B6823F0F8027B6823
:103C10005B69DB00394913430B603AE07B681B6941
:103C2000002B20D0364B01221A60FEF7E3FB3861EF
:103C300008E0FEF7DFFB02463B69D31A022B01D9ED
:103C40000323A1E12D4B1B6803F00203002BF0D0EE
:103C50002A4B1B6823F0F8027B685B69DB0027496D
:103C600013430B6015E0264B00221A60FEF7C2FBDF
:103C7000386108E0FEF7BEFB02463B69D31A022B0F
:103C800001D9032380E11D4B1B6803F00203002BC5
:103C9000F0D17B681B6803F00803002B3AD07B68E7
:103CA0009B69002B19D0174B01221A60FEF7A2FB6B
:103CB000386108E0FEF79EFB02463B69D31A022BEF
:103CC00001D9032360E10D4B5B6A03F00203002B73
:103CD000F0D0012000F0C4FA1CE00A4B00221A6068
:103CE000FEF788FB38610FE0FEF784FB02463B6974
:103CF000D31A022B08D9032346E100BF001002406B
:103D00000000424280044242924B5B6A03F002038D
:103D1000002BE9D17B681B6803F00403002B00F043
:103D2000A6800023FB758B4BDB6903F08053002BCF
:103D30000DD1884BDB69874A43F08053D361854BB3
:103D4000DB6903F08053BB60BB680123FB75824BCA
:103D50001B6803F48073002B18D17F4B1B687E4ACD
:103D600043F480731360FEF745FB386108E0FEF70B
:103D700041FB02463B69D31A642B01D9032303E1BB
:103D8000754B1B6803F48073002BF0D07B68DB68F5
:103D9000012B06D16F4B1B6A6E4A43F0010313627D
:103DA0002DE07B68DB68002B0CD16A4B1B6A694AEB
:103DB00023F001031362674B1B6A664A23F0040376
:103DC00013621CE07B68DB68052B0CD1614B1B6A1E
:103DD000604A43F0040313625E4B1B6A5D4A43F082
:103DE000010313620BE05B4B1B6A5A4A23F0010389
:103DF0001362584B1B6A574A23F0040313627B6813
:103E0000DB68002B15D0FEF7F5FA38610AE0FEF703
:103E1000F1FA02463B69D31A41F28832934201D942
:103E20000323B1E04B4B1B6A03F00203002BEED0DF
:103E300014E0FEF7DFFA38610AE0FEF7DBFA02462B
:103E40003B69D31A41F28832934201D903239BE0A4
:103E5000404B1B6A03F00203002BEED1FB7D012BCC
:103E600005D13C4BDB693B4A23F08053D3617B682F
:103E7000DB69002B00F08780364B5B6803F00C0396
:103E8000082B61D07B68DB69022B46D1334B0022C3
:103E90001A60FEF7AFFA386108E0FEF7ABFA0246A7
:103EA0003B69D31A022B01D903236DE0294B1B6810
:103EB00003F00073002BF0D17B681B6AB3F5803FE1
:103EC00008D1244B5B6823F400327B689B6821494E
:103ED00013434B601F4B5B6823F474127B68196AB1
:103EE0007B685B6A0B431B4913434B601B4B0122EE
:103EF0001A60FEF77FFA386108E0FEF77BFA0246A7
:103F00003B69D31A022B01D903233DE0114B1B68F7
:103F100003F00073002BF0D035E0104B00221A6044
:103F2000FEF768FA386108E0FEF764FA02463B697A
:103F3000D31A022B01D9032326E0064B1B6803F09A
:103F40000073002BF0D11EE07B68DB69012B07D1E9
:103F5000012319E00010024000700040600042425E
:103F60000B4B5B68FB60FB6803F480327B681B6A69
:103F70009A4206D1FB6803F470127B685B6A9A422E
:103F800001D0012300E0002318461837BD4680BD4C
:103F90000010024080B584B000AF786039607B6863
:103FA000002B01D10123D0E06A4B1B6803F007030B
:103FB0003A689A4210D9674B1B6823F0070265499B
:103FC0003B6813430B60634B1B6803F007033A68BD
:103FD0009A4201D00123B8E07B681B6803F002031A
:103FE000002B20D07B681B6803F00403002B05D056
:103FF000594B5B68584A43F4E06353607B681B6825
:1040000003F00803002B05D0534B5B68524A43F47E
:1040100060535360504B5B6823F0F0027B689B68F1
:104020004D4913434B607B681B6803F00103002B71
:1040300040D07B685B68012B07D1474B1B6803F4BA
:104040000033002B15D101237FE07B685B68022BD6
:1040500007D1414B1B6803F00073002B09D10123EA
:1040600073E03D4B1B6803F00203002B01D10123D9
:104070006BE0394B5B6823F003027B685B68364971
:1040800013434B60FEF7B6F9F8600AE0FEF7B2F9A9
:104090000246FB68D31A41F28832934201D90323C6
:1040A00053E02D4B5B6803F00C027B685B689B0060
:1040B0009A42EBD1274B1B6803F007033A689A42F8
:1040C00010D2244B1B6823F0070222493B6813439C
:1040D0000B60204B1B6803F007033A689A4201D03B
:1040E000012332E07B681B6803F00403002B08D037
:1040F000194B5B6823F4E0627B68DB681649134365
:104100004B607B681B6803F00803002B09D0124B3F
:104110005B6823F460527B681B69DB000E49134324
:104120004B6000F021F802460B4B5B681B0903F063
:104130000F030A49CB5C22FA03F3094A1360094BC7
:104140001B681846FEF714F9002318461037BD46C1
:1041500080BD00BF0020024000100240B482000871
:10416000040000203400002090B48AB000AF294B36
:104170003C1D0FCB84E80F0040F201233B8000235D
:10418000FB610023BB6100237B6200237B61002372
:104190003B62214B5B68FB61FB6903F00C03042B62
:1041A00002D0082B03D02BE01C4B3B622BE0FB69B9
:1041B0009B0C03F00F0328333B4413F8243C7B6132
:1041C000FB6903F48033002B12D0134B5B685B0C4C
:1041D00003F0010328333B4413F8283CBB617B699F
:1041E0000E4A03FB02F2BB69B2FBF3F37B6204E00D
:1041F0007B690B4A02FB03F37B627B6A3B6202E052
:10420000064B3B6200BF3B6A18462837BD4690BC50
:10421000704700BFA48200080010024000127A001C
:1042200000093D0080B400AF024B1B681846BD4634
:1042300080BC70470400002080B500AFFFF7F2FF9C
:104240000246054B5B681B0A03F007030349CB5C7E
:1042500022FA03F3184680BD00100240C482000811
:1042600080B485B000AF78600A4B1B680A4AA2FB95
:1042700003235B0A7A6802FB03F3FB6000BFFB6861
:104280005A1EFA60002BF9D100BF00BF1437BD469B
:1042900080BC704704000020D34D621080B582B00E
:1042A00000AF78607B68002B01D1012376E07B684A
:1042B0005B6A002B08D17B685B68B3F5827F09D00D
:1042C0007B680022DA6105E07B6800221A617B6866
:1042D00000225A617B6800229A627B6893F8513011
:1042E000DBB2002B06D17B68002283F8502078686F
:1042F000FDF75EFA7B68022283F851207B681B6819
:104300001A687B681B6822F040021A607B685B6851
:1043100003F482727B689B6803F404431A437B684E
:10432000DB6803F400631A437B681B6903F0020334
:104330001A437B685B6903F001031A437B689B693E
:1043400003F400731A437B68DB6903F038031A43F4
:104350007B681B6A03F0800342EA03017B689B6A67
:1043600003F400527B681B680A431A607B689B69F0
:104370001A0C7B681B6802F004025A607B681B6899
:10438000DA697B681B6822F40062DA617B680022CC
:104390005A657B68012283F85120002318460837AC
:1043A000BD4680BD80B588B000AFF860B9603B60A5
:1043B0001346FB800023FB77FB6893F85030012BFA
:1043C00001D1022326E1FB68012283F85020FEF789
:1043D00011F8B861FB88FB82FB6893F85130DBB2BF
:1043E000012B02D00223FB770BE1BB68002B02D02C
:1043F000FB88002B02D10123FB7702E1FB6803223B
:1044000083F85120FB6800225A65FB68BA681A637A
:10441000FB68FA889A86FB68FA88DA86FB680022CD
:104420009A63FB6800229A87FB680022DA87FB68A0
:1044300000225A64FB6800221A64FB689B68B3F58B
:10444000004F0FD1FB681B681A68FB681B6822F0DD
:1044500040021A60FB681B681A68FB681B6842F41C
:1044600080421A60FB681B681B6803F04003402B06
:1044700007D0FB681B681A68FB681B6842F04002A3
:104480001A60FB68DB68B3F5006F4BD1FB685B68B3
:10449000002B02D0FB8A012B3ED1FB681B6B1A88D4
:1044A000FB681B68DA60FB681B6B9A1CFB681A636D
:1044B000FB68DB8E9BB2013B9AB2FB68DA862BE08D
:1044C000FB681B689B6803F00203022B12D1FB6898
:1044D0001B6B1A88FB681B68DA60FB681B6B9A1CF5
:1044E000FB681A63FB68DB8E9BB2013B9AB2FB68E8
:1044F000DA8611E0FDF77EFF0246BB69D31A3A68FF
:104500009A4203D83B68B3F1FF3F02D13B68002BCE
:1045100002D10323FB7774E0FB68DB8E9BB2002B98
:10452000CED14CE0FB685B68002B02D0FB8A012BEC
:1045300040D1FB681A6BFB681B680C3312781A7049
:10454000FB681B6B5A1CFB681A63FB68DB8E9BB213
:10455000013B9AB2FB68DA862CE0FB681B689B681B
:1045600003F00203022B13D1FB681A6BFB681B6874
:104570000C3312781A70FB681B6B5A1CFB681A63A9
:10458000FB68DB8E9BB2013B9AB2FB68DA8611E0D6
:10459000FDF730FF0246BB69D31A3A689A4203D846
:1045A0003B68B3F1FF3F02D13B68002B02D10323EC
:1045B000FB7726E0FB68DB8E9BB2002BCDD1BA697E
:1045C0003968F86800F0BCFC0346002B02D0FB6899
:1045D00020225A65FB689B68002B0AD100233B61AF
:1045E000FB681B68DB683B61FB681B689B683B6181
:1045F0003B69FB685B6D002B02D00123FB7700E079
:1046000000BFFB68012283F85120FB68002283F879
:104610005020FB7F18462037BD4680BD80B588B04E
:1046200002AFF860B9603B601346FB800023FB7566
:10463000FB685B68B3F5827F12D1FB689B68002B37
:104640000ED1FB68042283F85120FA883B6800935E
:104650001346BA68B968F86800F0F1F80346EAE072
:10466000FB6893F85030012B01D10223E3E0FB6893
:10467000012283F85020FDF7BDFE3861FB6893F8F6
:104680005130DBB2012B02D00223FB75CAE0BB68BC
:10469000002B02D0FB88002B02D10123FB75C1E067
:1046A000FB68042283F85120FB6800225A65FB68EE
:1046B000BA689A63FB68FA889A87FB68FA88DA878F
:1046C000FB6800221A63FB6800229A86FB680022BE
:1046D000DA86FB6800221A64FB6800225A64FB68D1
:1046E0009B68B3F5004F0FD1FB681B681A68FB6825
:1046F0001B6822F040021A60FB681B681A68FB689E
:104700001B6822F480421A60FB681B681B6803F078
:104710004003402B07D0FB681B681A68FB681B68C6
:1047200042F040021A60FB68DB68002B62D12EE089
:10473000FB681B689B6803F00103012B15D1FB6824
:104740001B6803F10C02FB689B6B1278D2B21A70E3
:10475000FB689B6B5A1CFB689A63FB68DB8F9BB200
:10476000013B9AB2FB68DA8711E0FDF743FE02468F
:104770003B69D31A3A689A4203D83B68B3F1FF3FCA
:1047800002D13B68002B02D10323FB754AE0FB6892
:10479000DB8F9BB2002BCBD131E0FB681B689B68A1
:1047A00003F00103012B13D1FB681B68DA68FB6877
:1047B0009B6B92B21A80FB689B6B9A1CFB689A6396
:1047C000FB68DB8F9BB2013B9AB2FB68DA8711E092
:1047D000FDF710FE02463B69D31A3A689A4203D8A5
:1047E0003B68B3F1FF3F02D13B68002B02D10323AA
:1047F000FB7517E0FB68DB8F9BB2002BCDD13A69CC
:104800003968F86800F04AFB0346002B02D0FB68C9
:1048100020225A65FB685B6D002B02D00123FB75DB
:1048200000E000BFFB68012283F85120FB680022F2
:1048300083F85020FB7D18461837BD4680BD80B5F3
:104840008CB000AFF860B9607A607B800123FB62B6
:10485000002387F82B30FB6893F85030012B01D1EF
:1048600002238AE1FB68012283F85020FDF7C2FD94
:104870007862FB6893F8513087F82330FB685B68F7
:10488000FB617B887B8397F82330012B0FD0FB697A
:10489000B3F5827F07D1FB689B68002B03D197F8A3
:1048A0002330042B03D0022387F82B305BE1BB6855
:1048B000002B05D07B68002B02D07B88002B03D116
:1048C000012387F82B304EE1FB6893F85130DBB2BF
:1048D000042B03D0FB68052283F85120FB680022DB
:1048E0005A65FB687A689A63FB687A88DA87FB689E
:1048F0007A889A87FB68BA681A63FB687A88DA86CE
:10490000FB687A889A86FB6800221A64FB6800229A
:104910005A64FB681B681B6803F04003402B07D0F8
:10492000FB681B681A68FB681B6842F040021A604B
:10493000FB68DB68B3F5006F78D1FB685B68002B20
:1049400002D07B8B012B66D1FB681B6B1A88FB683E
:104950001B68DA60FB681B6B9A1CFB681A63FB68B8
:10496000DB8E9BB2013B9AB2FB68DA8653E0FB68B0
:104970001B689B6803F00203022B1BD1FB68DB8ED4
:104980009BB2002B16D0FB6A012B13D1FB681B6B6B
:104990001A88FB681B68DA60FB681B6B9A1CFB6853
:1049A0001A63FB68DB8E9BB2013B9AB2FB68DA8626
:1049B0000023FB62FB681B689B6803F00103012B6B
:1049C00019D1FB68DB8F9BB2002B14D0FB681B68EE
:1049D000DA68FB689B6B92B21A80FB689B6B9A1C2F
:1049E000FB689A63FB68DB8F9BB2013B9AB2FB6862
:1049F000DA870123FB62FDF7FDFC02467B6AD31ACE
:104A0000BA6B9A4207D8BB6BB3F1FF3F03D00323C5
:104A100087F82B30A7E0FB68DB8E9BB2002BA6D17A
:104A2000FB68DB8F9BB2002BA1D17CE0FB685B684D
:104A3000002B02D07B8B012B6BD1FB681A6BFB68C0
:104A40001B680C3312781A70FB681B6B5A1CFB68CE
:104A50001A63FB68DB8E9BB2013B9AB2FB68DA8675
:104A600057E0FB681B689B6803F00203022B1CD114
:104A7000FB68DB8E9BB2002B17D0FB6A012B14D195
:104A8000FB681A6BFB681B680C3312781A70FB68A2
:104A90001B6B5A1CFB681A63FB68DB8E9BB2013BE5
:104AA0009AB2FB68DA860023FB62FB681B689B688E
:104AB00003F00103012B19D1FB68DB8F9BB2002BA4
:104AC00014D0FB681B68DA68FB689B6BD2B21A7063
:104AD000FB689B6B5A1CFB689A63FB68DB8F9BB27D
:104AE000013B9AB2FB68DA870123FB62FDF782FC87
:104AF00002467B6AD31ABA6B9A4203D8BB6BB3F1F6
:104B0000FF3F02D1BB6B002B03D1032387F82B306F
:104B100029E0FB68DB8E9BB2002BA2D1FB68DB8F08
:104B20009BB2002B9DD17A6AB96BF86800F008FA45
:104B30000346002B06D0012387F82B30FB68202288
:104B40005A6510E0FB689B68002B0BD100237B614A
:104B5000FB681B68DB687B61FB681B689B687B618B
:104B60007B6900E000BFFB68012283F85120FB68ED
:104B7000002283F8502097F82B3018463037BD4676
:104B800080BD000080B588B000AF78607B681B688E
:104B90005B68FB617B681B689B68BB61BB699B09A9
:104BA00003F00103002B0FD1BB6903F00103002BBD
:104BB0000AD0FB699B0903F00103002B04D07B683A
:104BC0001B6C78689847BEE0BB695B0803F0010383
:104BD000002B0AD0FB69DB0903F00103002B04D092
:104BE0007B685B6C78689847ADE0BB695B0903F054
:104BF0000103002B06D1BB699B0903F00103002BC5
:104C000000F0A180FB695B0903F00103002B00F0B9
:104C10009A80BB699B0903F00103002B23D07B68BA
:104C200093F85130DBB2032B11D07B685B6D43F0FE
:104C300004027B685A6500237B617B681B68DB6824
:104C40007B617B681B689B687B617B690BE0002351
:104C50003B617B681B68DB683B617B681B689B680A
:104C60003B613B696FE0BB695B0903F00103002B0B
:104C700014D07B685B6D43F001027B685A650023AA
:104C8000FB607B681B689B68FB607B681B681A681D
:104C90007B681B6822F040021A60FB687B685B6DD2
:104CA000002B4FD07B681B685A687B681B6822F01A
:104CB000E0025A607B68012283F85120FB6903F00F
:104CC0000203002B04D1FB6903F00103002B34D055
:104CD0007B681B685A687B681B6822F003025A6075
:104CE0007B68DB6C002B11D07B68DB6C174A5A6346
:104CF0007B68DB6C1846FDF7B9FC0346002B05D03A
:104D00007B685B6D43F040027B685A657B689B6CF7
:104D1000002B16D07B689B6C0C4A5A637B689B6C9B
:104D20001846FDF7A3FC0346002B0AD07B685B6D99
:104D300043F040027B685A6503E0786800F008F8A9
:104D400000E000BF00BF2037BD4680BD634D0008B6
:104D500080B483B000AF786000BF0C37BD4680BC24
:104D6000704780B584B000AF78607B685B6AFB6099
:104D7000FB680022DA87FB680022DA86F868FFF712
:104D8000E7FF00BF1037BD4680BD000080B588B08A
:104D900000AFF860B9603B601346FB71FDF72AFB7A
:104DA0000246BB6A9B1A3A681344FB61FDF722FB7B
:104DB000B861394B1B685B011B0DFA6902FB03F3F9
:104DC0007B6154E03B68B3F1FF3F50D0FDF712FB2D
:104DD0000246BB69D31AFA699A4202D9FB69002BD1
:104DE0003DD1FB681B685A68FB681B6822F0E00233
:104DF0005A60FB685B68B3F5827F11D1FB689B68E2
:104E0000B3F5004F04D0FB689B68B3F5806F07D102
:104E1000FB681B681A68FB681B6822F040021A6076
:104E2000FB689B6AB3F5005F0FD1FB681B681A68CB
:104E3000FB681B6822F400521A60FB681B681A6842
:104E4000FB681B6842F400521A60FB68012283F879
:104E50005120FB68002283F85020032317E07B6970
:104E6000002B01D10023FB617B69013B7B61FB6867
:104E70001B689A68BB681340BA689A420CBF01234A
:104E80000023DBB21A46FB799A429BD100231846D5
:104E90002037BD4680BD00BF0400002080B586B02D
:104EA00002AFF860B9607A60FB685B68B3F5827F37
:104EB00011D1FB689B68B3F5004F04D0FB689B6879
:104EC000B3F5806F07D1FB681B681A68FB681B6825
:104ED00022F040021A60FB685B68B3F5827F17D14D
:104EE000FB689B68B3F5806F12D17B680093BB6849
:104EF00000220121F868FFF749FF0346002B1AD072
:104F0000FB685B6D43F02002FB685A65032313E0E6
:104F10007B680093BB6800228021F868FFF736FFAA
:104F20000346002B07D0FB685B6D43F02002FB6853
:104F30005A65032300E0002318461037BD4680BDA4
:104F400080B586B002AFF860B9607A607B68009384
:104F5000BB6800228021F868FFF718FF0346002B8A
:104F600007D0FB685B6D43F02002FB685A650323A2
:104F700000E0002318461037BD4680BD014B18687D
:104F8000704700BF3C00002070B500260C4D0D4C52
:104F9000641BA410A64209D103F060F900260A4D53
:104FA0000A4C641BA410A64205D170BD55F8043B01
:104FB00098470136EEE755F8043B98470136F2E78B
:104FC0001887000818870008188700081C87000841
:104FD00003460244934200D1704703F8011BF9E7EE
:104FE000002B2DE9F0471F46BBBF03F100431F46CE
:104FF00000232D2388B01446129A109D1370149B21
:10500000DDF84CA023F02008B8F1460F05D0B8F128
:10501000450F00D10135022300E0032307AA0492C3
:1050200006AACDE902A2CDE9003522463B4600F0B2
:10503000E3FCB8F1470F064602D1119BDB0722D5EE
:10504000B8F1460F06EB050910D13378302B0AD1A1
:105050000022002320463946FBF7A6FC18B9C5F10B
:105060000105CAF80050DAF8003099440022002304
:1050700020463946FBF798FC08B1CDF81C90302249
:10508000079B4B4507D33046079B159A9B1B136024
:1050900008B0BDE8F087591C07911A70F0E7034685
:1050A000F7B5002903F8022BB6BF2D222B22494267
:1050B000092942702BDD0DF10704A4460A2791FB54
:1050C000F7F60A46A64607FB1615632A05F13005D2
:1050D000314604F1FF340EF8015CF0DC3031AEF102
:1050E000020504F8011C2946441C61450AD30DF150
:1050F0000902A2EB0E02654588BF00221344181A6C
:1051000003B0F0BD11F8012B04F8012FEDE73023B7
:1051100030318370C170031DF1E700002DE9F04FBD
:1051200091B00C46DDF8688016461F46054601F032
:1051300051FA036818460993FBF70AF800230E9307
:10514000D8F800300A90073323F0070303F1080270
:1051500094F81890D4F800B0C8F80020D3E90023E0
:10516000C4E91223D4E9128A2AF000430B934FF0CA
:10517000FF3240469C4B0B99FBF748FC70BB4FF04D
:10518000FF324046984B0B99FBF722FC30BB0022C4
:10519000002340465146FBF711FC10B12D2384F843
:1051A0004330924B9248B9F1470F94BF98468046DE
:1051B00003234FF0000A23612BF0040323603346DE
:1051C0002146284600970FAA00F0D4F9013040F09C
:1051D00090804FF0FF3011B0BDE8F08F424653464B
:1051E00040465146FBF712FC48B1BAF1000FB8BF78
:1051F0002D238048B8BF84F843307F4BD3E76368E2
:1052000009F0DF015A1C42D1062363600022069296
:105210000EAACDE904920DAA4BF4806303920DF11E
:105220003302CDE901322360636842460093284689
:1052300053460B91FFF7D4FE0B99804647290D99F1
:1052400008D1C81C02DB6368994240DDA9F102095C
:105250005FFA89F9B9F1650F1FD84A46013904F19F
:1052600050000D91FFF71BFF0E9A82461318012A7A
:10527000236102DC2268D20701D5013323619DF846
:105280003330002B9BD02D2384F8433097E74729F8
:10529000BCD1002BBAD10123B7E7B9F1660F18D101
:1052A000002963680BDD216113B92268D00702D59C
:1052B00001330B4423614FF0000AA165DFE713B906
:1052C0002268D20701D50233F4E70123F2E74FF059
:1052D00067090E9B994205DB23682161D807EAD54F
:1052E0004B1CE7E70029CCBF0122C1F102021344A5
:1052F000E0E723685A0507D4236942463146284629
:10530000B84701302BD164E7B9F1650F40F2DD8079
:10531000D4E9120100220023FBF746FB002833D01A
:10532000012331462846354AB84701303FF451AF92
:10533000DDE90D239A4202DB2368D8070FD5DDE9AA
:10534000092331462846B84701303FF442AF4FF0B9
:10535000000804F11A090E9B013B434509DC236850
:105360009B0700F10281E0680F9B9842B8BF184686
:1053700031E701234A4631462846B84701303FF419
:1053800028AF08F10108E6E70D9B002B38DC01236C
:1053900031462846194AB84701303FF41AAFDDE9D3
:1053A0000D23134302D12368D907D8D5DDE909239A
:1053B00031462846B84701303FF40BAF4FF00009A3
:1053C00004F11A0A0D9B5B424B4501DC0E9B94E7EE
:1053D0000123524631462846B84701303FF4F9AE22
:1053E00009F10109EEE700BFFFFFEF7FD08200085F
:1053F000D4820008DC820008D8820008E08200081D
:105400000E9AA36D9A42A8BF1A46002A914637DC2D
:105410004FF0000B29EAE97904F11A02D4F858A0F8
:10542000AAEB09035B4533DCDDE90D239A423BDB44
:105430002368DA0738D40E9B0D99A3EB0A02A3EB7D
:1054400001099145A8BF9146B9F1000F34DC4FF036
:10545000000829EAE97904F11A0ADDE90D239B1A0B
:10546000A3EB090343457FF77AAF01235246314648
:105470002846B84701303FF4ACAE08F10108ECE72C
:105480001346314642462846B8470130C0D1A0E60F
:105490000123314628460B92B84701303FF499AEBC
:1054A0000B9A0BF1010BB9E73146DDE909232846D8
:1054B000B8470130BFD18CE64B463146284608EB51
:1054C0000A02B8470130C2D183E60E9A012A01DCF4
:1054D000DB0737D50123424631462846B84701301D
:1054E0003FF477AEDDE9092331462846B84701305D
:1054F0003FF46FAED4E9120100220023FBF754FA07
:10550000D8B90E9B08F10102013B31462846B84745
:1055100001300ED15DE601234A4631462846B847A0
:1055200001303FF456AE08F101080E9B013B4345A4
:10553000F1DC534604F15002E0E64FF0000804F1BC
:105540001A09F2E701234246DFE701234A463146C2
:105550002846B84701303FF43CAE08F10108E36843
:105560000F995B1A4345F0DCFDE64FF0000804F1AB
:105570001909F4E72DE9F047164699468A680B6940
:1055800007469342B8BF1346336091F843200C4658
:10559000DDF820800AB1013333602368990642BFE9
:1055A000336802333360256815F0060506D104F12F
:1055B000190AE36832689B1AAB4228DC94F843204E
:1055C000131E226818BF012392062DD4494638467F
:1055D00004F14302C047013020D02368E56803F09E
:1055E0000603042B18BF002532684FF00006A3689D
:1055F00008BFAD1A226908BF25EAE5759342C4BF0A
:105600009B1AED181A34B5421AD1002008E0012384
:10561000524649463846C047013003D14FF0FF306B
:10562000BDE8F0870135C4E73020E11881F8430078
:105630005A1C94F845102244023382F84310C5E7FF
:105640000123224649463846C0470130E6D001369C
:10565000D9E700002DE9FF470F7E9146782F80465D
:105660000C469A460C9D01F1430207D8622F0AD8D6
:10567000002F00F0D980582F00F0A48004F14205DB
:1056800084F842703AE0A7F16303152BF6D801A124
:1056900051F823F0ED560008015700087D56000828
:1056A0007D5600087D5600087D5600080157000809
:1056B0007D5600087D5600087D5600087D5600087E
:1056C0000F58000831570008F15700087D560008B0
:1056D0007D560008315800087D56000831570008F3
:1056E0007D5600087D560008F95700082B681A1DE2
:1056F0001B682A6004F1420584F842300123A4E0CB
:1057000020682968060601F104030AD50E682B609B
:10571000002E03DA2D23764284F843300A235E48B4
:1057200019E00E6810F0400F2B6018BF36B2EFE79B
:105730002B682068191D2960010601D51E6802E04A
:105740004606FBD51E886F2F0CBF08230A2352483C
:10575000002184F843106568002DA8BF2168A5606A
:10576000A4BF21F0040121600EB9002D4DD01546D3
:10577000B6FBF3F103FB1167C75D05F8017D374602
:10578000BB420E46F4D9082B0BD12368DE0708D59F
:10579000236961689942DEBF302305F8013C05F1B9
:1057A000FF35521B22614B4621464046CDF800A0F2
:1057B00003AAFFF7DFFE01304CD14FF0FF3004B0F9
:1057C000BDE8F087344881F845702968236851F8AE
:1057D000046B29601D0614D5DF0744BF43F0200386
:1057E00023601EB9236823F0200323601023AFE752
:1057F000236843F0200323607823284884F8453049
:10580000E3E7590648BFB6B2E6E71546BBE72B68A3
:105810002668181D6169286035061B6801D5196066
:1058200002E07006FBD51980002315462361BAE714
:105830002B6800211A1D2A601D686268284600F046
:10584000D5FE08B1401B606063682361002384F8C3
:105850004330A8E72A46494640462369D0470130ED
:10586000ABD023689B0713D4E068039B9842B8BF72
:105870001846A4E70123324649464046D047013046
:105880009BD00135E36803995B1AAB42F2DCEBE78E
:10589000002504F11906F5E7E2820008F38200080A
:1058A0000EB46FF0004100B59CB01DAB02900690A5
:1058B000079104910848094953F8042B05910068A1
:1058C00002A9019301F07CFB0022029B1A701CB01C
:1058D0005DF804EB03B070473C0000200802FFFFB6
:1058E0002DE9F74F03690C690746A342C0F2828095
:1058F000013C00F1140501F1140805EB8403019348
:1059000058F8243055F8242001339A42B2FBF3F6BC
:105910004FEA840B08EB840931D34FF0000E404668
:10592000AC46F24650F8042B93B206FB03E3120C8C
:105930004FEA134E9BB206FB02E2AAEB0303DCF82C
:1059400000A04FEA124E1FFA8AFA5344DCF800A076
:1059500092B2C2EB1A4202EB23429BB243EA0243E9
:1059600081454FEA224A4CF8043BDBD255F80B3014
:105970002BB9019B043B9D421A462FD33C6138460C
:1059800001F0CEF8002825DB28464FF0000C013648
:1059900058F8041BD0F800E08BB2ACEB03031FFAFD
:1059A0008EF213440A0CC2EB1E4202EB23429BB25E
:1059B00043EA0243C1454FEA224C40F8043BE7D298
:1059C00055F8242005EB840322B9043B9D421A4676
:1059D0000AD33C61304603B0BDE8F08F1268043B47
:1059E000002ACBD1013CC6E71268043B002AF0D163
:1059F000013CEBE70020EEE72DE9F04F16461F468D
:105A0000446A99B00546CDE90467DDF8948074B91D
:105A1000102000F0E3FD0246686220B9EA21A84B9D
:105A2000A84801F0DDFBC0E901440460C4606B6A72
:105A3000196851B15A68012393404A608B60284627
:105A400000F030FE00226B6A1A603B1EAFBF0023DD
:105A5000012223F000430593A8BFC8F80030DDF809
:105A60001490994BB8BFC8F8002033EA090319D144
:105A700042F20F73249A1360C9F31303334300F007
:105A80007F85269B53B9914B22E0914B03930833BA
:105A9000269A1360039819B0BDE8F08F8B4B0393DF
:105AA0000333F5E7DDE90434CDE90C34DDE90C011D
:105AB00000220023FAF778FF804658B10123249A88
:105AC0001360269B002B00F0588582481860431E07
:105AD0000393DFE716AB019317AB00932846DDE98C
